:400000000010002011000000FF0E0000FF0E000008B500F08BFF0000F7B572B6614B01221A7080220021D2005F4804F082F88022D2005E480021002404F07BF8221C5C48AF
:4000400021582030CBB201930F1CFF239F435300C0180023019EDDB2AE4209D05D00465D4519B446BC446D78664635700133F1E7C9B204345218202CE1D14E4BA02212010F
:400080001A804D4B01261E704C4A99231B041360EE214B4A090211604A4A992111604A4A80211360494A09041160494A49491360494A3C251160494A802189041160484A1C
:4000C000484F1360484A02231360484A1360484A11781943117047490878A8431425284308701178162001431170434A2A2111604249434A03251160424AC0211160424AD0
:4001000042491460424A18201160424A80211160414A42491560424A1160424A42491560424A1160424A31211360424A1160424A13603A688023DB0213433B6001F0A2F8F1
:400140003A683E4B301C13403B603D4A3D4B1A603D4B30221C603D4B1A603D4B10221A603C4B11221A603C4B21221A603B4B822212061A603A4A3B4B1A603B4B3B4A1360CF
:400180003B4A13603B4A3C4B1A603C4A3C4B1A603C4B00221A603C4B1D603C4B1D6000F00DFFF7BD1C700F4000300F4000400F40D84A000000600F4002600F4000000140B3
:4001C0000C0001401000014000500F4004500F4010500F400400990020500F4024500F4030500F4000010B402000004000800F4000700F4001700F4000000440B619030072
:40020000080004400C00044018000440B60D1800080104401801044000020440801DD8000802044018020440800DC00008030440000404400804044018040440FFFFFBFF4E
:400240000600008004010B40080202400C0202401C020240340202403C02024008010B4003000080000002401000008040000240800002401700008004000240DF2E00805D
:40028000440002400C020B4000031A4040031A4010B5064C2378002B07D1054B002B02D0044800E000BF0123237010BDF8020020000000007849000008B5084B002B03D00B
:4002C0000748084900E000BF07480368002B03D0064B002B00D0984708BDC0460000000078490000FC020020C80000200000000008B5064803F072FC054800F011FA054B46
:4003000003211A780A431A7008BDC046040400000C0400201403002008B500783038C0B202F0A0FC08BD000008B502F0A7FC002801D0024800E0024808BDC046EF4C0000CF
:40034000014D000008B5012003F040FC08BD38B50224FF34051C201C03F0E8FB201C03F065FC291C012003F019FC201C03F0C4FB38BD01207047704708B501280BD000288B
:4003800005D002280AD1064800F0C7F906E0044800F0BDF902E0024800F0BCF908BDC0460C04002010B50349041C052203F0B8FE201C10BD28040020074B00221A702B2220
:4003C0005A700A229A700122DA701A71034B19780A431A707047C0462804002014030020144BDA78012A0BD11A78511CC9B219703B2908D959783B3A013159701A7002E062
:400400005A7801325A7059783B2909D99A783C390132D2B29A705970172A01D900229A709A780A3A062A01D8012200E00222DA707047C0462804002010B5041C0220FF306F
:4004400003F074FB032C25D8201C03F079FD021C1F1F0020011C03F023FB0120011C03F01FFB082003F080FB0020012103F02EFB0120011C03F02AFB0020094903F08EFB1C
:4004800001200A2104E00120011C01E001203C2103F084FB0220FF3003F02EFB10BDC046FF7C000010B5104B03211A7802248A431A70FF3400F092FD00F094FD00F09EFD31
:4004C00002F00AFA00F038F90020FFF7B5FF201C03F02CFB054800F02FFE201C03F00CFB62B600F0C3F910BD14030020F102000010B5FFF775FF074BD8781A791C1C82420A
:4005000001D0FFF799FFE378237100F085FD00F075F910BD2804002008B500F07BF9044B03211A788A431A7000F068FD08BDC0461403002010B5FFF73FFFFFF7B3FF0E4CB5
:40054000201C00F01BF8201C00F025F8012000F0A7FCFA20800000F075FE002000F0A0FC201C00F025F902F007FA201C00F01FF800F034F9F4E7C0460C0400200A23037048
:4005800000234360037243728372C3720376C36003614361704710B5041C00F003FC00F027FC0223237000236061636010BD38B5041C002363606268002A00D096E02078EE
:4005C000092800D98FE003F0BBFC058E1A364A55638E8185E57A002D08D00A23002523706560FFF799FF00F0DDFB6AE0A37A002B79D00A2323706560FFF78EFF54E0A57AC5
:40060000002D01D0092312E00A23237063696560002B07DD00F0FCFBE06000F0F7FB0523206119E0002B21D100F0F6FB042323700023636057E0A57A002DE3D10A23211C54
:40064000FA222370201C2B1C1831D200656000F097F800F0E7FB06232370656043E0A37A002BCFD10A23002523706560FFF740FF2570F2E7A57A002DC4D10A232370226912
:40068000E36865609A42CFDA00F0C5FB0323E3E7A57A002D0AD00A230025211C23706560201C183100F07AF80923D5E7237E002B19D00A23211C23706560201C183100F03D
:4006C0006DF800F095FB02236061C5E7A37A002B98D108E0637A002B02D00823237002E0237A002BBED16368013363E7002323726372A372E372237638BD031C1833994206
:4007000004DB1930814201D201230B7070470123037270470123437270470123837270470123C37270470000024B1A6801321A607047C0461803002008B50A490F2000F042
:4007400039FD094B094AC0215A60094A0906106A0002000A0143116200229A6007221A6008BDC0462907000010E000E0BF5D000000ED00E0014B18687047C046180300202B
:4007800030B51830044C081A256800012018C56041608260037430BD180300201830034B081A000118180023436070471803002038B5094C6168256800290CD0E268AB1A40
:4007C000A268934207D3FFF798FF237C002B01D0E56000E0636038BD1803002008B5064B1A68002A05D05B68002B02D100F0E8FD01E000F0D7FD08BD2C03002008B500F075
:40080000B9FC034B1A6801321A6000F0B7FC08BD2C03002008B500F0ADFC054B1A68002A02D01A68013A1A6000F0A8FC08BDC0462C03002008B500F09DFC034B5A6801323D
:400840005A6000F09BFC08BD2C03002008B500F091FC054B5A68002A02D05A68013A5A6000F08CFC08BDC0462C03002008B500F009FB08BD08B5011C1022024803F050FC87
:4008800008BDC0467004002008B5011C1022024803F046FC08BDC0468004002008B5011C1022024803F03CFC08BDC0469004002008B5011C1022024803F032FC08BDC0469D
:4008C000A004002008B5011C1022024803F028FC08BDC046B004002008B5011C1022024803F01EFC08BDC046C004002008B5011C1022024803F014FC08BDC046D0040020FE
:4009000008B5011C1022024803F00AFC08BDC046E004002008B5011C1022024803F000FC08BDC046F004002008B5011C1022024803F0F6FB08BDC04600050020004870474C
:40094000700400200048704780040020004870479004002000487047A004002000487047B004002000487047C004002000487047D004002000487047E0040020004870471F
:40098000F00400200048704700050020F7B55B23061C0D1C0192037000270124A54216D0019B3019DB59291B1A1C009302F0A4FC201885420BD02C230437441C3354102F29
:4009C000ECD13619013E5D233370201C00E0281CFEBD0000F8B5451C8E1E002400216B5C4F1C2C2B0BD1281C02F0DEFC064BED19E0500434F61B102CF0D1181CF8BDB14251
:400A0000F1D0391CEBE7C04634030020014BD8331860704738040020014BDC331860704738040020014BE0331860704738040020014BE4331860704738040020014BE8336A
:400A40001860704738040020014BEC331860704738040020014BF0331860704738040020014BF433186070473804002070477047704770477047704770477047704700008E
:400A8000014B18627047C04638040020014B58627047C04638040020014B98627047C04638040020014BD8627047C04638040020014B18637047C04638040020014B586353
:400AC0007047C04638040020014BD8331868704738040020014BDC331868704738040020014BE0331868704738040020014BE4331868704738040020014BE833186870477F
:400B000038040020014BEC331868704738040020014BF0331868704738040020014BF4331868704738040020014BF8331868704738040020014B18687047C0463804002064
:400B4000014B58687047C04638040020014B98687047C04638040020014BD8687047C04638040020014B18697047C04638040020014B58697047C04638040020014B9869ED
:400B80007047C04638040020014BD8697047C04638040020014B186A7047C04638040020014B586A7047C04638040020014B986A7047C04638040020014BD86A7047C046B6
:400BC00038040020014B186B7047C04638040020014B586B7047C04638040020F8B5664D66492868222203F09BFA654C654F286821683A68213921302860216002F07CFBE1
:400C00002A687D26131822685F49101A5A1C20602A601E7023682868013B2322236003F07FFA286821687A68223922302860216002F062FB2A68554913182268101A5A1CDA
:400C400020602A601E7023682868013B2122236003F066FA28682168BA68203920302860216002F049FB2A68494913182268101A5A1C20602A601E7023682868013B21229E
:400C8000236003F04DFA28682168FA68203920302860216002F030FB2A683E4913182268101A5A1C20602A601E7023682868013B2122236003F034FA286821683A692039D4
:400CC00020302860216002F017FB2A68324913182268101A5A1C20602A601E7023682868013B2522236003F01BFA286821687A69243924302860216002F0FEFA2A682749D2
:400D000013182268101A5A1C20602A601E7023682868013B2522236003F002FA28682168BA69243924302860216002F0E5FA2A681B4913182268101A5A1C20602A601E700C
:400D400023682868013B2322236003F0E9F928682168FA69223922302860216002F0CCFA2A6813182268101A5A1C20602A601E702368013B2360F8BD6002002081490000CB
:400D80006402002038040020A3490000C6490000E7490000084A0000294A00004E4A0000734A000037B50F4D6846FFF7FBFA69460522281C03F0B4F90B4C291C0522201C72
:400DC00003F0AEF9AA7809491301CB1859686378CB18DBB263703B2B03D901323C3BA270637037BD3405002030040020CC00002007B56846FFF7D6FA03486946052203F06D
:400E00008FF901200EBDC0463405002001207047FA2080007047704708B5002001F022FF08BD000000B5302389B004215822114801F07EFD00F043F80F49021C01A803F069
:400E400081F901A800F058F900F044F80B49021C01A803F077F901A800F04EF900F046F80749021C01A803F06DF901A800F044F909B000BD7C490000A54A0000B74A0000E5
:400E8000C94A000008B5012002F068FF012002F059FF02F031FF02F0FFFF03F00BF808BD10B5041E04D0002002F034FF012003E0012002F02FFF201C02F038FF10BD08B57C
:400EC000012003F001F8031C0020834201D003F00DF808BD08B5012002F0F6FF031C0020834202D0012003F001F808BD10B502F0B9FE041C002002F0AFFE201C10BDFEE7AB
:400F0000084A08B5136808491818411A802901DC106005E003F0D8F80C23036001235B42181C08BD4C020020800B002070B51048104B0138421C15D01E685C689D68002283
:400F4000A118AA4203D0B158A1500432F8E7DA680D1C4C1B944202D0002410C1F9E710330138E7E703F0B6F8FFF7E4FAFEE7C046010000008855000008B500239A00032B6B
:400F800002D80A49895800E009490A4801338150302BF3D1FFF740F8074B00221A608023DB051A6801210A431A6008BD00000000FF0E000000000020C0000020064B1A68CC
:400FC000191C002803D080231B06134301E053005B080B607047C04680031A4008B500F02BF808BD08B5044B8022196812060A431A6000F069F808BD0000074010B5054CF5
:401000002378002B03D100F017F801232370FFF7E9FF10BD4403002008B500F063F8044B1A68520052081A60024B00221A6008BD00000740880F0740124A134B10B51A6083
:40104000124A00231360124A012111601148124A0724026011480460114803601148016011490A60114A1360114A1360114A1360114A1360114A1360114A1360114A1360B4
:4010800010BDC0460B00000200000740400007404800074000030740070000800403074010030740440007400002074004020740880E0740C80E0740480F0740080F074063
:4010C000C80F0740880F0740044B054A19680A40902109040A431A607047C04600000140FFFF0FFF024B034A19680A401A60704700000140FFFF0FFF10B5041C0134631E7E
:401100001878002802D002F003FFF7E710BD000038B5041C00F02EF8054B06491D68A2032C1C0C4014431C6000F028F838BDC04608E400E0FF3FFFFF10B5064B8024A400C2
:401140001C60054B58660320FFF7E2FF034B1C6010BDC04680E100E00000002000E100E00230800804D0C0460138FDD1C046C046C0467047EFF3108072B6704780F310886C
:401180007047C046C046C04638B5041CFFF7F2FF064B07221D6806491440E2042C1C0C4014431C60FFF7EAFF38BDC04600010B40FFFFC7FF8022830092059B181868196031
:4011C00070470000024A83009B181868196070474000002038B5041C0D1CFFF7CBFFA308084A9B009B1803221440944019680634A2409143A5400C1C2C431C60FFF7BEFFFC
:4012000038BDC04600E400E01F23184001238340181C014B1860704700E100E01F23184001238340181C014B1860704780E100E01F23184001238340181C014B186070475D
:4012400080E200E010B5041C8022074B1202944205D91868FFF784FF044BE418F4E758686043FFF77DFF10BD500200200080FFFF08B5034B1B7A5843FFF772FF08BDC0466D
:4012800050020020F0B585B0041CFFF773FFE11E039002912D295AD82F4B1B789C4204D82E4B1D782E4BEDB21EE02E4B1B789C4204D82D4B1D782D4BEDB215E02C4B1B78D9
:4012C0009C4204D82B4B1D782B4BEDB20CE02B4B1B789C4204D82A4B1D782A4BEDB203E0294B1D78294BEDB21B78029ADBB20093274B284E9A5C01922F2A04D92A2C02D921
:401300001927376008E037683F231F40019BBB4205D2204B019919600520FFF721FF1B4A1D4BA41822780099D2B21A601B4B05201D601B4B1960FFF79BFF019ABA4206D9BE
:40134000029A134905208B5C3360FFF709FF0398FFF714FF05B0F0BDC0F1FF0FC1F1FF0FC2F1FF0FC3F1FF0FC4F1FF0FC5F1FF0FC6F1FF0FC7F1FF0FC8F1FF0FC9F1FF0F2F
:40138000CAF1FF0FCBF1FF0FCCF1FF0FCDF1FF0FC84B00002CFF0B4028FF0B401CFF0B4020FF0B4008B5FFF7E5FE044B04211A688A431A6030BFFFF7E1FE08BD10ED00E0FF
:4013C000F7B5FFF7D7FE134B80241A68E405520052081A60236802252B4323600E4B04211A880E4B92B21A600D4B0E4E1A68071C0A431A603368281C0193FFF7C5FE30BFCE
:40140000019B381C33602368AB432360FFF7B6FEF7BDC04600000B4052F1FF0F0C000B4010ED00E000010B400B01C3181A78013A012A07D89A6801310B01C3185B689A4235
:40144000F9DC00E00131081C70470000034A98235B00D15C04200143D1547047280A0020034A98235B00D05CF9210140D1547047280A0020054B01201A1CFC321163982269
:401480005200995C014399547047C046280A00200121024A9A238B40D1547047280A0020024A9A2302215B00D1547047280A0020024A9A2303215B00D1547047280A002016
:4014C000024A9A2304215B00D1547047280A0020F7B5264E0F1C00900192301C244910221D1C02F01DFE234C1E210F36FF316160301C00993A1C266002F012FE1E22FF327E
:40150000B819D31B0B273A1C1B496360206002F007FE2068636801990A3B2A1C0A306360206002F0FDFD2368616858193A1C4B1B12496360206002F0F3FD206863680899F0
:401540000A3B099A0A306360206002F0E9FD2268099953186268551A5A1C2260222265601A706368013B6360F7BDC0463C050020F64B000060020020064C0000114C00007C
:401580000B1C097810B503290AD15C689B6800191C1B111C221C02F0F7FD431E984100E00120404210BD000038B50C1C221C9B49051C02F0E9FD0023984200D12BE1281C77
:4015C0009749221C02F0E0FD0123002800D122E1281C9449221C02F0D7FD0223002800D119E1281C9049221C02F0CEFD0323002800D110E1281C8D49221C02F0C5FD042346
:40160000002800D107E1281C8949221C02F0BCFD0523002800D1FEE0281C8649221C02F0B3FD0623002800D1F5E0281C8249221C02F0AAFD0723002800D1ECE0281C7F4900
:40164000221C02F0A1FD0823002800D1E3E0281C7B49221C02F098FD0923002800D1DAE0281C7849221C02F08FFD0A23002800D1D1E0281C7449221C02F086FD0B23002867
:4016800000D1C8E0281C7149221C02F07DFD0C23002800D1BFE0281C6D49221C02F074FD0D23002800D1B6E0281C6A49221C02F06BFD0E23002800D1ADE0281C6649221C71
:4016C00002F062FD0F23002800D1A4E0281C6349221C02F059FD1023002800D19BE0281C5F49221C02F050FD1123002800D192E0281C5C49221C02F047FD1223002800D13A
:4017000089E0281C5849221C02F03EFD1323002800D180E0281C5549221C02F035FD1423002878D0281C5249221C02F02DFD1523002870D0281C4F49221C02F025FD162336
:40174000002868D0281C4C49221C02F01DFD1723002860D0281C4949221C02F015FD1823002858D0281C4649221C02F00DFD1923002850D0281C4349221C02F005FD1A23E1
:40178000002848D0281C4049221C02F0FDFC1B23002840D0281C3D49221C02F0F5FC1C23002838D0281C3A49221C02F0EDFC1D23002830D0281C3749221C02F0E5FC1E23C5
:4017C000002828D0281C3449221C02F0DDFC1F23002820D0281C3149221C02F0D5FC2023002818D0281C2E49221C02F0CDFC2123002810D0281C2B49221C02F0C5FC2223A5
:40180000002808D0281C2849221C02F0BDFC2523002800D12323181C38BDC0461C4C0000284C0000354C00003A4C0000484C0000564C0000624C00006E4C00007A4C00000D
:401840008A4C00009A4C0000A84C0000B24C0000BB4C0000C54C0000D14C0000D84C0000DF4C0000F14C0000034D0000154D0000274D0000394D00004B4D00005D4D00000B
:401880006F4D0000814D0000934D00009D4D0000A64D0000B64D0000C64D0000D64D0000E64D0000F34D0000054E000038B50C1C221C1149051C02F067FC0023984218D0DA
:4018C000281C0E49221C02F05FFC0123002810D0281C0B49221C02F057FC0223002808D0281C0849221C02F04FFC0523002800D10323181C38BDC046CB4C00000E4E00005D
:40190000134E0000184E000008B5002802D0FEF791FF01E0FEF79AFF08BD000038B50B4D982464002B5D1A0706D50822934308482B5501F08BFC07E0FEF71CFF054B0222D4
:4019400018602B5D13432B5538BDC046280A0020B114000048030020F7B50E78071C0C1C012E00D09BE2CA6800250192019B9D4200DB94E2310161180B78032B00D08EE2C9
:40198000381CD94AFFF7FCFD711C00280AD1090164186368A168F818C91AFFF705FE252806D17CE2201CFFF73FFD0135061CDDE7232800D973E2CD4C02F0CCFA240032003F
:4019C0004000530061006F007D008B009900A700B500C300D100DF00ED00FB00090117012501330141014F015D016B0179018701CE01E101EF01FD010B021902270235022B
:401A0000430251022068BA492B2202F089FB266865682A362A3D26606560FEF793FC2BE22068B4492C2202F07BFB266865682B362B3D26606560FEF79CFC1DE2AE4924224F
:401A4000206802F06DFB266865682336233D26606560FEF769FC291C021C301C01F08CFC0FE22068A5492D2202F05AFB266865682C362C3D26606560FFF75CF8FCE1206886
:401A80009F492D2202F04CFB266865682C362C3D26606560FFF754F8EEE1206899492B2202F03EFB266865682A362A3D26606560FFF74CF8E0E1206893492B2202F030FB1C
:401AC000266865682A362A3D26606560FFF744F8D2E120688D492B2202F022FB266865682A362A3D26606560FFF73CF8C4E1206887492F2202F014FB266865682E362E3DCA
:401B000026606560FFF734F8B6E1206881492F2202F006FB266865682E362E3D26606560FFF72CF8A8E120687B492D2202F0F8FA266865682C362C3D26606560FFF724F8F1
:401B40009AE120687549292202F0EAFA266865682836283D26606560FFF71CF88CE120686F49282202F0DCFA266865682736273D26606560FFF714F87EE120686949292204
:401B800002F0CEFA266865682836283D26606560FFF70CF870E1206863492B2202F0C0FA266865682A362A3D26606560FFF704F862E120685D49262202F0B2FA2668656879
:401BC0002536253D26606560FEF7FCFF54E120685749262202F0A4FA266865682536253D26606560FEF7F4FF46E120685149322202F096FA266865683136313D26606560D3
:401C0000FEF79CFEB5E020684B49322202F088FA266865683136313D26606560FEF792FEA7E020684549322202F07AFA266865683136313D26606560FEF788FE99E020684E
:401C40003F49322202F06CFA266865683136313D26606560FEF77EFE8BE020683949322202F05EFA266865683136313D26606560FEF774FE7DE020683349322202F050FA5E
:401C8000266865683136313D26606560FEF76AFE6FE020682D49322202F042FA266865683136313D26606560FEF760FE61E020682749322202F034FA266865683136313DD2
:401CC00026606560FEF756FE53E020682149322202F026FA266865683136313D26606560FEF74CFE45E0C046D554000060020020214E00004C4E0000784E00009C4E00007C
:401D0000C94E0000F64E0000214F00004C4F0000774F0000A64F0000D54F0000025000002B500000535000007C500000A7500000CD500000F35000002551000057510000AD
:401D400089510000BB510000ED5100001F520000515200008352000020685849322202F0DFF9266865683136313D26606560FEF709FE021C291C301CFEF708FE81E0206805
:401D80004F49292202F0CCF9266865682836283D26606560FEF798FE6EE020684949282202F0BEF9266865682736273D26606560FEF790FE60E0206843492F2202F0B0F910
:401DC000266865682E362E3D26606560FEF788FE52E020683D492F2202F0A2F9266865682E362E3D26606560FEF780FE44E0206837492F2202F094F9266865682E362E3DC7
:401E000026606560FEF778FE36E0206831492F2202F086F9266865682E362E3D26606560FEF770FE28E020682B492C2202F078F9266865682B362B3D26606560FEF768FEBB
:401E40001AE020682549312202F06AF9266865683036303D26606560FEF760FE0CE020681F49282202F05CF9266865682736273D26606560FEF758FE021C291C301C01F03F
:401E80003BFA226813186268101A5A1C22607D2260601A7063680320013B63600CE0114C11492068102202F03BF9236804200F33236063680F3B6360FEBDC046B5520000DF
:401EC000E752000010530000385300006753000096530000C5530000F453000020540000515400006002002079540000F0B50B7889B002900191012B00D0B7E2C9680022E4
:401F0000079125210092171C151C161C141C05910693009B07998B4248DA069A019B12019B1804931B780392032B00D09EE202980499CE4AFFF724FB00280CD1039A019933
:401F400010328A1853680299C8189168C91AFFF72BFB059020E002980499C54AFFF710FB002809D1039A019B10329A18536802999768CD18FF1A0FE002980499BD4AFFF7CE
:401F8000FFFA002808D1039A019B10329A18536802999668CC18F61A069901980131FFF743FA009A069001320092B2E7002C00D15CE2002D00D159E2059A252A00D155E21D
:401FC000232A00D952E2101C01F0C4FF240033004200510060006F007E008D009C00AB00BA00C900D800E700F600050114012301320141015C016B017A0189019801A701A1
:40200000B601C501D301E101EF01FD010B02190227023502281C98493A1C02F0B5F8002800D015E2311C201C01F0BEF9FEF78FF90EE2281C90493A1C02F0A6F8002800D055
:4020400006E2311C201C01F0AFF9FEF794F9FFE1281C8A493A1C02F097F8002800D0F7E1311C201C01F0B8F9FEF756F9F0E1281C81493A1C02F088F8002800D0E8E1311C12
:40208000201C01F091F9FEF7F2FCE1E1281C7A493A1C02F079F8002800D0D9E1311C201C01F082F9FEF7E4FCD2E1281C72493A1C02F06AF8002800D0CAE1311C201C01F00F
:4020C00073F9FEF7D6FCC3E1281C6B493A1C02F05BF8002800D0BBE1311C201C01F064F9FEF7C8FCB4E1281C63493A1C02F04CF8002800D0ACE1311C201C01F055F9FEF7FF
:40210000BAFCA5E1281C5C493A1C02F03DF8002800D09DE1311C201C01F046F9FEF7ACFC96E1281C54493A1C02F02EF8002800D08EE1311C201C01F037F9FEF79EFC87E163
:40214000281C4D493A1C02F01FF8002800D07FE1311C201C01F028F9FEF790FC78E1281C45493A1C02F010F8002800D070E1311C201C01F019F9FEF783FC69E1281C3E49D9
:402180003A1C02F001F8002800D061E1311C201C01F00AF9FEF77AFC5AE1281C36493A1C01F0F2FF002800D052E1311C201C01F0FBF8FEF771FC4BE1281C2F493A1C01F05D
:4021C000E3FF002800D043E1311C201C01F0ECF8FEF768FC3CE1281C27493A1C01F0D4FF002800D034E1311C201C01F0DDF8FEF75FFC2DE1281C20493A1C01F0C5FF0028A5
:4022000000D025E1311C201C01F0CEF8FEF756FC1EE1281C1A493A1C01F0B6FF002800D016E1311C201CFEF7D5FBFEF723FB0FE1281C13493A1C01F0A7FF002800D007E1F2
:40224000311C201CFEF7C6FBFEF71EFB00E1281C0B493A1C01F098FF002800D0F8E0311C201CFEF7B7FBFEF719FBF1E0D55400000A550000895400008B540000F454000054
:402280008D540000281C81493A1C01F07DFF002800D0DDE0311C201CFEF79CFBFEF708FBD6E0281C79493A1C01F06EFF002800D0CEE0311C201CFEF78DFBFEF703FBC7E0F4
:4022C000281C72493A1C01F05FFF002800D0BFE0311C201CFEF77EFBFEF7FEFAB8E0281C6A493A1C01F050FF002800D0B0E0311C201CFEF76FFBFEF7F9FAA9E0281C6349C9
:402300003A1C01F041FF002800D0A1E0311C201CFEF760FBFEF7F4FA9AE0281C5B493A1C01F032FF002800D092E0311C201CFEF751FBFEF7EFFA8BE0281C54493A1C01F062
:4023400023FF002800D083E0311C201CFEF742FBFEF7EAFA7CE0281C4D493A1C01F014FF002875D1311C201C01F01EF8FEF74EFB6EE0281C46493A1C01F006FF002867D1B3
:40238000311C201C01F010F8FEF746FB60E0281C3F493A1C01F0F8FE002859D1311C201C01F002F8FEF73EFB52E0281C38493A1C01F0EAFE00284BD1311C201C00F0F4FF52
:4023C000FEF736FB44E0281C31493A1C01F0DCFE00283DD1311C201C00F0E6FFFEF72EFB36E0281C2A493A1C01F0CEFE00282FD1311C201C00F0D8FFFEF726FB28E0281C48
:4024000023493A1C01F0C0FE002821D1311C201C00F0CAFFFEF71EFB1AE0281C1C493A1C01F0B2FE002813D1311C201C00F0BCFFFEF716FB0CE0281C15493A1C01F0A4FE6A
:40244000002805D1311C201C00F0AEFFFEF70EFB104C11492068102201F062FE236802200F33236063680F3B63600CE0094C0A492068102201F054FE236804200F3323602A
:4024800063680F3B636009B0F0BDC0468D5400008B540000600200207954000010B50D4C0D491322206801F03BFE2368123323606368123B6360FEF791FB206807490322C2
:4024C00001F02EFE23680820023323606368023B636010BD6002002090540000A354000010B5074C07492068102201F019FE236804200F33236063680F3B636010BDC04616
:40250000600200207954000070B5244D061C244928680B2201F004FE2B686C680A330A3C701E2B606C60072823D801F009FD04100A162222221C032C00DD0324181C194908
:402540001CE0072C00DD0724181C174916E0032C00DD0324181C154910E0042C00DD0424181C13490AE0042C00DD0424181C114904E0032C00DD03240F49181C221C01F0A1
:40258000CFFD2A6813196A68141B5A1C2A6022226C601A706B68013B6B6070BD60020020A6540000B1540000B5540000BE540000BD540000C2540000C7540000F0B58C4E92
:4025C000002489B07460B460F4603461347518360290301C0F1C01F08BF8864D3C230093301C02993A1C2B1C00F006FFA04201DC0120FAE02B78012BFAD1ED68049406951F
:402600000393049B0698834200DBD8E00398794C05012E5D032EEBD12D190298291C764AFEF7AEFF039F013700284DD13B011A5D012ADDD1E418039EE4680236079405900D
:402640000598079A6B4D904233DA34012B5D032BCED12C190298211C684AFEF791FF002809D1731C1B01ED186B68029A6449D018AA68D21A0FE00298211C624AFEF780FF0E
:4026800000280DD1731C1B01ED186B68029A5E49D018AA68D21A01F077FD002800D0A1E0711C5448FEF7C0FE059B061C01330593C6E73F01ED196A6802984D4B81185960D7
:4026C000A9688A1A5A6270E00298291C4F4AFEF757FF00280DD13F013B5D012B88D1E41962680298424B81189960A1688A1A9A625BE00298291C464AFEF742FF002831D1C0
:402700003F01E4196368029AA468D518E41A281C4049221C01F038FD012300281FD0281C3D49221C01F030FD331C002817D0281C3A49221C01F028FD022300280FD0281C83
:402740003749221C01F020FD0423002807D0281C3449221C01F018FD43424341DB00244A137522E00298291C2F4AFEF709FF00280AD13F01E419626802981D4B8118196112
:40278000A1688A1ADA6210E00298291C274AFEF7F7FE002809D13F01E41962680298144B8118D960A1688A1A1A63039911480131FEF73AFE049A03900132049221E70C4B5B
:4027C0009A68002A10D0586800280DD01A69002A0AD01A7D0320002A07D0DB680020834203D101E0022000E0032009B0F0BDC0464803002068060020CB540000D754000015
:40280000E0540000E2540000EF4C0000E9540000F0540000B1540000B5540000BE540000BD540000C2540000F6540000FC54000008B5012804D1081C191CFFF78DF800E022
:40284000002008BD10B50023012819D10D4C0E491322206801F064FC2368123323606368123B6360FEF7BAF920680849032201F057FC2368023323606368023B636003236E
:40288000181C10BD6002002090540000A354000010B50023012818D1081C111CFFF706F805280FD0FDF768FD094C0A492068102201F036FC23680F33236063680F3B636069
:4028C000022302E0FFF70CFE031C181C10BDC046600200207954000070B5104CA22200215200201C01F025FC0D4800F027FC0D4800F02AFC96250C4E6D00301C2A1C211C32
:4029000000F028FC2A1C301C211C00F02DFC074800F00EFC00F0D6FB70BDC046280A00204D14000061140000751400000919000038B50E4C251CFC35E8632964582A08D0A0
:40294000111C4139FF20C900014007201840014300E00121FC346164054988680270CA680448137000F038FC38BDC046280A00206002002091140000F0B59823A94D5B00D3
:40298000EA5C85B0D10700D4B3E002218A43EA542B1CFC33196B281CFFF710FE002800D0A1E0A14C237D042B07D1636B5A1C6263022B00DD97E09D4B84E022696063A063B9
:4029C0000092E36A271C0193A16A6268636AA0681837FEF77DFD381C00F08AFE944E3C230093381CE168226B331C00F005FD0390002878DDE16A27690291381C8D49029A6A
:402A000001F0C2FB002807D1237DE068012B62D1311CFFF76BFA3BE0381C8749029A01F0B3FB002808D1039B207DE168226B0093331CFFF7FDFE2BE0381C8049029A01F0E5
:402A4000A3FB002805D1237D002B44D1FFF726FD1EE0381C7A49029A01F096FB002808D1039B207DE168226B0093331CFFF7EAFE0EE0381C7349029A01F086FB00282AD18D
:402A8000039B207DE168226B0093331CFFF700FF041E20D0FFF738FD644B1A68511C19607D2111705A681968013A5A6000220A70022C01D0042C05D198225200A95C0820A9
:402AC0000143A9545B6896214900C91A5E4A5F4800F054FB07E098235B00EB5C5A0702D45B4800F0B3FB98235B00EA5C01218A43EA5498267600AB5D990723D54A4CA26BA5
:402B0000022A08DD02229343AB5559071AD4504800F09CFB16E0FDF72DFE22684D4B801A98420FD9AB5D02229343AB55A36B96210133A3633D4B49005B684448C91A424AFA
:402B400000F01CFB9A235B00EB5C022B0AD0032B5FD0012B60D12B1CFC33586C3E4900F049FB59E0304B2E1CFC3600225A639A63F36B2E4C0093316C201C01911B211030DB
:402B8000364A0B1CFEF7A4FCF76B366C381C2949321C01F0F9FA002837D0381C2649321C01F0F2FA002830D0381C2449321C01F0EBFA002804D1FFF771FC061E08D124E052
:402BC000381C1F49321C01F0DFFA00281DD1F2E7FFF79AFC23685A1C22607D221A7063682268013B636000231370082E04D198235B00EA5C1643EE54636896214900C91A30
:402C0000114A124800F0BAFA06E0114800F01EFB02E0134800F046FB9A2300225B00EA5405B0F0BD280A002048030020600200206806002004550000085500007C49000063
:402C4000734C00000C5500001D1900003C050020B1140000B80B0000A114000011550000C1140000044B4022196880019143C9B202400A431A60704700010440024B186851
:402C80004006C00F7047C04604010440BA4B70B51B68590700D4FEE0B84C20780238042800D9EDE001F04CF903EC895EC300B44BD8221B685200934201D1012304E0656879
:402CC000012D03D1237202236360E1E0022D00D0DEE0E3600023636000F044FD237A042B21D0102B23D0012B00D0D1E072B6A54A11680B431360136804211D43A24B156032
:402D00001A688A431A60E2688023A04C5B001343236000F0C3FD431E98410323181AB023206023601CE005232370236A33E00322227072B6934A01201168014311601168CA
:402D400004200D431560904A116881431160E2688021490011438D4A11601360B023136062B695E0864BD8221B6852009342A4D06268012AA6D0022A00D089E0E3600023AD
:402D8000636000F007FE00F0EDFC237A102B06D106232370E36A002B7AD0984778E0636B002B75D0CE204000984771E0744B784A1B68D90506D500231370764B1B681907BB
:402DC000F4D165E01578002D0FD0012DF5D1226C616C8A4204D1636B002BEED0BC201DE0511C2164E16B8B54E7E70121DBB21170112B02D0122B06D00CE0E06B216CA269A5
:402E000090472564D9E7022323706369002BD4D09847D2E7636B002BCFD0D0209847CCE7574B5B4A1B68D90506D500235370594B1B681907F4D12BE05578002D0FD0012DE6
:402E4000F5D1E26C216D8A4204D1636B002BEED09A2013E0511CE164A16C8B54E7E70121DBB25170112B05D1A06CE16CE2699047E564DCE7636B002BD9D0A8209847D6E730
:402E8000636B002B02D0AE20FF30984700F06AFC414B04221A60414E33689A0547D5394C012223680225934323602368AB43236000F058FC344B04211A680A431A602F4AAB
:402EC0001078131C0138062827D801F039F8042C111F0B1F18001570226808210A4322605B6A0FE0642000F063FD00F033FD1AE011701269002A16D0D868904713E005220B
:402F00001A701B6B002B0ED098470CE0926A002A09D0586DD96D904705E0536B002B02D0F5204000984780221D4B92001A603368990744D5114B5C6D1A4A0F21106801401C
:402F4000101C082938D09A6DD96D8A422ED101680F220A4008218A1A012AF8D9DB68802252001A43094B02211A6011221A600E4B1A688A431A601FE0CC0F0640840300200C
:402F80004003064000000440C80F0640400206408C02002008030640C00F06408C0F0640800F064008020640880F0640511C9965A15C034A1160BFE7024B02221A6070BDC4
:402FC00040020640800F064010B500F0E3FC164C636B002B02D08E20800098472378052B1AD172B6114B01211A680A431A601A6802210A431A600E4B04211A688A431A604E
:40300000E368802252001A430A4B1A6010221A60B0221A6062B605E0636B002B02D093208000984710BDC0468403002000000440C80F064040020640F8B500F037FC0028F8
:4030400036D01C4B01271B681B4C1C4E1C4D1A0716D500F0BFFC00F095FB23680222BB43236023681343236000F07CFB3368042293433360AB6B00202870834217D117E030
:4030800023680222BB43236023689343236000F069FB336804221343336000F081FB00F0B7FC02232B70AB6B002B01D0381C9847F8BDC0460400044000000440C80F064086
:4030C0008403002008B500F029FB144800F044FBFF2000F0D7FBB02000F0CAFB104800F001FC104800F024FC00F042FC00F052FC00F070FC0C4B01211A688A431A601A682E
:4031000002210A431A6000F02DFB084B04211A688A431A6000F036FB08BDC0468D2C000039300000C92F000000000440C80F0640014B98637047C04684030020014B186175
:403140007047C04684030020014B58617047C04684030020034B5A6400229861D9631A647047C04684030020034B1A650022D8619964DA647047C04684030020114BF0B575
:403180001C78042C01D0062C19D10F4C01262568042735432560266802252E4326600B4C2668BE432660586500209A62D9659865074B1D60074B1A6815431D6000E0022081
:4031C000F0BDC0468403002000000440C80F0640800F0640880F0640044B08211862044B00201A688A431A607047C0468403002000000440114B1A78052A1DD1D962D86012
:4032000072B60F4A012011680143116011680220014311600B4A0420116881431160DB68802252001A43084B1A6010221A60B0221A6062B6002000E0022070478403002056
:4032400000000440C80F064040020640114B1A78062A1CD1072218631A7072B60E4A012011680143116011680220014311600B4A0420116881431160DB68802252001A4352
:40328000074B1A6012221A6062B6002000E002207047C0468403002000000440C80F064040020640104B1A78052A1AD101215862197072B60D4B1868014319601968022041
:4032C000014319600A4B0420196881431960094B0221FF3119601A60B0221A6062B6002000E002207047C0468403002000000440C80F064040020640F0B5002785B0051C4B
:403300000391141EBC4204DA2D2303705442013501273E1CEA1B92190192721C7B420292092C09DC201C0A2100F0C2FE019E019B30310136197012E0039A9642F2DAEB18F5
:40334000201C0A21019300F0B3FE019A30319155201C0A2100F056FE029E041CDAE7731B012B06DD013E2A78337832702B700135F5E7029805B0F0BDF8B5071C131C9C1A7A
:403380000133581E00780028F9D1621C8A420ADA7D1C2226E1433E705918281C221C00F0BFFE2E55A01CF8BD30B50478021C231C2D3B58424341D31800209D1A8D4206DACF
:4033C0000A2568431D780133303D4019F5E72D2C00D1404230BD000038B5051C05480A1C041C142900DD1422291C00F099FE201C38BDC046E4030020F0B585B08C460392B3
:4034000000240168039A914207D341689E4D4A1E491909015B18083358E16646725C002AF3D02C2A00D1E2E010D80D2A00D143E104D8093A012A00D83EE109E1202A00D1BC
:403440003AE1222A00D003E14A1C74E05D2A31D005D83A2A00D1C6E05B2A05D0F8E07B2A02D07D2A26D0F3E00134002B00D123E145680A9E0295B54200D330E1029F01354B
:4034800045603D0101275D197F428668AF606F600027EF60771C04D03701DF19FE680136FE607B3A571EBA41029F01322A706960876001E1002B00D1FEE07D3A551EAA41E2
:4034C000714E4568013202926A1EAD192D015D190435002A14DB2F682E1F01370DD06F680197013709D13578029FBD4200D0F8E0019D01318560B16005E0013A103DE8E7E4
:40350000561C00D1EDE011015918002A00DAD3E04F68013702D08D68013566D0013A1039F3E76646B55C002D0AD0222D0AD05C2D1CD00268013202600268039DAA42F0D3A7
:403540000160D0E0002B00D1ABE045680A9EB54200D397E06E1C2D0146605D190026EE60013103262E706960AA609AE0039F551CBD42DED205606646755D662DD9D00AD8CC
:403580002F2DD6D002D8222D52D1D2E75C2DD0D0622D4DD1CDE7722DCBD002D86E2D47D1C7E7742DC5D0752D42D10232026004260568039FBD4203D30268013A0260B8E7D0
:4035C00067467A5D002AF7D0171C303F092F04D92027BA43413A052A2AD80135013E0560002EE5D1E8E74268013A826064E0002B62D087683A01D25C013A012A5CD942681D
:40360000214D511E521912019A180432002953DB151F2D78013D012D07D81668013604D05768013701D1816046E00139103AEDE7016056E06646B55C002D1DD0202D1BD075
:4036400010D8092D09D2203D5E2DF1D8013202600268039DAA42EDD30EE00A2D0CD90D2DF1D109E03A2D07D002D82C2DEBD103E05D2D01D07D2DE6D1002B10D045680A9F39
:40368000BD4203D301602AE0FFFFFF0F6E1C2D0146605D190026EE602E706960AA60013A026082680134551C06D0002B04D012019A18D1680131D160026801320260A0E61D
:4036C000191F0968013104D1013A103B002AF7DA03E01F680137F7D105E0E4B204E0FF2402E0FE2400E0FD2460B205B0F0BDC04600230360436001235B42836070470000AA
:4037000008B5054B8022196812060A431A600A20FDF77AFD08BDC0460000064010B5054C2378002B03D100F045F801232370FFF7E7FF10BDF803002008B50A20FDF76EFD36
:40374000044B0A201A68520052081A60FDF770FD08BDC04600000640014B58607047C046F8030020054B8022196852020A431A601968034A0A401A607047C04604030640B0
:40378000FFFFFEFF08B5044B044A1B68DB0F137001D0FFF7D1FF08BD000006400004002008B5034B1B78002B01D0FFF7A9FF08BD000400201A4A1B4B10B51A601A4B00244B
:4037C0001C601A4A1A4B07211A601A4B1A4A0A2013601A4A11601A491A4A11601A4A012111601A4A13601A4B1C60FDF717FD0A200321FDF7EFFC17490A20FDF7E3FC164BCD
:4038000004221C60154B1C60154B1C60154B1C60154B1A60154B802292001A6010BDC0460B000102000006404000064001040000480006400800008000030640040306400C
:403840000100FF00100306404400064000020640040206402D3F0000880E0640C80E0640480F0640080F0640C80F0640880F0640034BFF221968914302400A431A607047F5
:4038800010030640034B044A196800040A4010431860704710030640FFFF00FF024B18680007C00F7047C04600000440034B0822186810401860C008C0B2704710000440C3
:4038C00010B5041CFDF756FC054BA2011968C024A1430C1C14431C60FDF750FC10BDC04600E400E0054B10B501241C60044B18640320FFF7E5FF034B1C6010BD80E100E039
:403900000000002000E100E038B5041CFDF732FC054B06491D68A2032C1C0C4014431C60FDF72CFC38BDC04600E400E0FF3FFFFF054B10B502241C60044B58640320FFF755
:40394000E3FF034B1C6010BD80E100E00000002000E100E008B5FDF70DFC044B20211A780A431A70FDF70AFC08BDC04693000F4008B5064B1A78002A04D1054A642111705E
:4039800001221A70FFF7E6FF08BDC0460104002083000F4008B5FDF7EDFB044B20211A788A431A70FDF7EAFB08BDC04693000F407F231840014B18707047C04673000F40D8
:4039C000024B1A78024B5A707047C04673000F406C0B002008B5074B1A7820231A40064B04D001221A70FFF7D5FF00E01A70FFF7E7FF08BD93000F406C0B0020024B5A783E
:403A0000024B1A707047C0466C0B002073000F4008B5FFF7F3FF034B1B78002B01D0FFF799FF08BD6C0B0020034B8022196812060A431A607047C04604010B4008B5FDF71F
:403A400099FB044BC022196812020A431A60FDF795FB08BD00010B4010B5FDF78BFB084B084A196880241140E4012143196019680A40802109020A431A60FDF77FFB10BDFB
:403A800000010B40FF3FFFFF044BC0001B680130C340181C012318407047C04610020B4038B5041C0D1CFFF7EFFF00280BD1064B0322E4001968101CA04081431540A540EB
:403AC0000C1C2C431C6038BD0C020B4038B5041C0D1CFFF7D9FF00280AD1064BE40002341A680121A1408A43A540141C2C431C6038BDC0460C020B4010B5041CFFF794FFDF
:403B0000094B1A6822431A60E10702D51A689107FCD5E20502D51A689105FCD5E20302D51A689103FCD510BD10020B400C4B1A68C0231B021A4212D10A4B1A6882431A6084
:403B4000C20702D51A689107FCD4C20502D51A689105FCD4C20302D51A689103FCD4704700010B4010020B40094B10B51C6819681A68490A63080B43520C1343DA0705D439
:403B8000044B054A19680A401043186010BDC04610020B400C020B40F7F7FFFF38B5051CC9200C1CFDF764FB064B074928011A6881408A438440101C204318604320FDF7EE
:403BC00057FB38BD08020B40FFFF0000024B00011B68C34098B2704708020B4038B5041CFDF7C8FA0D4BC0221B681202051C1A4010D10B4B0B4918680C400B4901400C43B7
:403C00001C601B68012A01D1FFF718FF281CFDF7B5FA38BDFFF720FF0122EAE700010B4010020B4004040400FBFBFBFF044B054A196810400843186019681142FCD1704767
:403C400010020B4008080800024B802219780A431A70704772000F40014B18707047C04602000F40024B1B78024B1878C0B2704702000F4042000F40034B1B785A0602D53E
:403C8000024B1B78F8E7704762000F4042000F4008B5124B07211A788A4301210A431A701A7803218A431A70FFF7E6FF0C4BFF221A700C4A002313700B4A13700B4B8022FC
:403CC0001B780B4B1A70FDF755FA0A4B10211A780A431A70FDF752FA08BDC04672000F4022000F4002000F4082000F4062000F4032000F4092000F4010B5054C2378002BD1
:403D000003D1FFF7C5FF01232370FFF79DFF10BD02040020044B0422196880009143C9B202400A431A60704700020440044B7F2219681140C201081C1043C0B21860704751
:403D400000020440044B0422196880009143C9B202400A431A60704700000440044B08221968C0009143C9B202400A431A6070470001044038B50E200321FDF72BFA234962
:403D80000E20FDF71FFA224B03221A60214A224B11681B68002B01DA204B00E0204B0B431360204A204B21491A60214A214B224D1A60224A00231360214A0A6021490A6047
:403DC000214A802110684902084310601F4A1068014311601E4A1F4913601F4A0220136001220A601D4908601D491E480C682040104308601C491D4C0B601D481D49238005
:403E000008602A606380486038BDC046053F000020001A4000001A4080031A40C0201010C02000108C00008004001A4010001A400000FF0718001A4084001A401C001A4085
:403E40000400040014001A4000031A4040031A4028021A4018021A4038021A40000F1A4030001A40FFFFFFDF80001A40780B0020204E0000700B002008B5064B1A68002A37
:403E800007DB1968802212060A431A600A20FDF7EFF908BD00001A4010B5054C2378002B03D1FFF767FF01232370FFF7E5FF10BD03040020034B8022196852020A431A60DC
:403EC0007047C04604001A40011C00208B0709D0054A01231068184002D18B07F8D401E01360181C7047C04610021A400023012804D8034B8000C01803689BB218B27047D3
:403F000080011A40014B1A681A60704710021A40044B1A680F231340082BF9D0024B18607047C046080207404002074008B5034B1B68002B00D0984708BDC046FC0300203B
:403F400002B4714649084900095C49008E4402BC7047C04603B47146490840004900095A49008E4403BC7047002934D00123002210B488422CD301242407A14204D2814237
:403F800002D209011B01F8E7E400A14204D2814202D249005B00F8E7884201D3401A1A434C08A04202D3001B5C0822438C08A04202D3001B9C082243CC08A04202D3001B18
:403FC000DC082243002803D01B0901D00909E3E7101C10BC7047002801D00020C04307B4024802A14018029003BDC046D90000000029F0D003B5FFF7B9FF0EBC4243891A6F
:404000001847C046002941D010B4041C4C40A44601230022002900D54942002800D5404288422CD301242407A14204D2814202D209011B01F8E7E400A14204D2814202D297
:4040400049005B00F8E7884201D3401A1A434C08A04202D3001B5C0822438C08A04202D3001B9C082243CC08A04202D3001BDC082243002803D01B0901D00909E3E7101C23
:404080006446002C00D5404210BC7047002806D003DB0020C043400801E08020000607B4024802A14018029003BDC046190000000029EBD003B5FFF7A7FF0EBC4243891AE7
:4040C0001847C0467047C046014B18687047C046F002002070B50E4B0E4D0024ED1AAD101E1CAC4204D0A300F35898470134F8E701F038FA084B094D0024ED1AAD101E1C77
:40410000AC4204D0A300F35898470134F8E770BD7055000070550000705500007855000010B50023934203D0CC5CC4540133F9E710BD031C8218934202D019700133FAE7E4
:40414000704700000EB400B59CB01DAB04CB822202A992008A810A4A02908A604A6101225242CA81074A086110681D9A019300F081F8029A002313701CB008BC03B01847FB
:40418000FFFFFF7FF0020020031C002010B582420FD01C780878A04201D1012A03D118780B78C01A05E0013A0028F8D001330131EFE710BDF0B58D6885B0071C0C1C03924E
:4041C0000193AB4245D390228B89D20013423DD062690326564309692068F20F401A96190290021C0198013212187610964200D2161C381C5A050FD5311C00F021FB051E80
:4042000013D0029A2169FFF78BFFA289184B134080221343A38111E0321C00F065FB051E0CD1381C216900F0C3FA0C233B60A389402213430120A381404217E0029B25614F
:40424000ED1825606661019DF61AA6600198A84200D2019D2A1C2068039900F090FAA2680020531BA36023685D19256005B0F0BD7FFBFFFFF0B59FB0039005938B890E1C0A
:40428000171C19060FD53269002A0CD1402100F0D7FA30603061002803D103990C230B60C9E04023736106AD00236B6120236B763023AB763C1C2378002B03D1E21B029214
:4042C00011D003E0252BF9D00134F4E70398311C3A1C029BFFF76EFF013000D1A6E06969029A8B186B612378002B00D19EE0012252426A606A4600235B3201342B60EB602D
:40430000AB601370AB654E4F2178381C052200F02BFA002807D0C71B2B680120B840184328600134EFE72B68D90603D56A4620215B3211701A0703D56A462B215B32117052
:4043400022782A2A01D0099B0EE0059A111D12680591002A01DB099204E05242EA60022213432B60013409E02278303A092A04D80A214B4301349B18F6E7099323782E2B68
:4043800018D163782A2B09D1059B02341A1D1B680592002B0DDA01235B420AE0013400232278303A092A04D80A214B4301349B18F6E70793234F2178381C032200F0D4F962
:4043C000002806D0C71B2B684020B84018432860013421781C480622671C297600F0C4F9002812D0194B002B06D1059B0722073393430833059314E005AB00930398291CB3
:40440000321C134B00E000BF07E005AB00930398291C321C0E4B00F091F804900499013104D06A69049953186B6143E7B3895A0601D40B9801E0012040421FB0F0BDC046E5
:404440002F550000355500003955000000000000B5410000F7B5151C01930A698B68061C0C1C934200DA131C221C2B6043321278002A01D001332B602068800602D52B68B1
:4044800002332B60216806270F401FD0231C43331B785A1E9341226892061FD5E11840313020C870211C5A1C45310978A21840320233D17012E0221C301C019919320123DB
:4044C000089FB847013011D0009F01370097E0682968009F431A9F42EDDBD7E7221C301C01994332089FB847013002D10120404223E0206806212B68E26801400025042952
:4045000003D1D51AEB43DB171D40A26823699A4201DDD31AED1800270097009FAF420BDA221C301C01991A320123089FB8470130DCD0009F0137EFE70020FEBDF0B50D1C59
:404540008BB0433506920590079304950B7E0C1C109A6E2B00D1A7E011D8632B22D009D8002B00D1B0E0582B00D0C0E045310B707B4D4EE0642B1CD0692B1AD0B7E0732BFE
:4045800000D1A5E009D86F2B29D0702B00D0AEE00E68202333430B6036E0752B1FD0782B32D0A4E013680D1C191D423511601B689FE0216813680E0603D5191D11601E68EF
:4045C00005E04806F9D5191D116000215E5E644B002E3BDA049D2D2276422A7036E0216813680E0603D5191D11601E6804E04806F9D5191D1E881160594B227E0393082779
:404600006F2A1ED00A271CE0231C78214533554D197011682368081D039510601E0601D50E6802E05806FBD50E88D90702D52022134323601027002E03D1226820239A434F
:404640002260231C002243331A7001E003930A276368A360002B03DB2568042295432560002E02D1049D002B0ED0049D301C391CFFF7BEFC0398013D435C301C2B70391C77
:40468000FFF772FC061EF1D1082F09D12168C90706D5626823699A4202DC013D30232B70049E731B23612AE0086813684969050604D5181D10601B68196005E04606F8D551
:4046C000181D10601B68198000232361049D16E01368191D11601D68281C00F03DF963682061984200D923612069606004E0251C42352B7001232361049E00233370079EF2
:4047000005980096211C09AA069BFFF7A3FE013002D10120404221E02A1C059806992369079DA8470130F4D02668B60705D4099BE068984212DA181C10E00025E0680999D7
:40474000431A9D42F3DA221C0598069919320123079EB0470130DCD00135EFE70BB0F0BD4055000051550000C9B28218904204D003788B4202D00130F8E70020704770B53E
:40478000814201D300230CE08C18A042FAD28518131C013B0BD351426618F65C6918CE54F7E7934203D0CC5CC4540133F9E770BD30B5002940D004390B68002B00DAC9185A
:4047C0001E4A1368141C002B02D14B60116033E099420FD208680A189A4205D113685268C01808604A6000E04B60216024E08A4203D8131C5A68002AF9D11D685C198C42F6
:404800000BD10968691858181960904214D114685268091919605A600EE08C4202D90C23036009E008680C18944203D114685268001908604A60596030BDC04608040020F6
:4048400070B50323CD1C9D430835061C0C2D01D20C2501E0002D3FDB8D423DD3204B1C681A1C211C002913D00868431B0DD40B2B02D90B60CC181EE08C4202D16368136027
:404880001AE0486860600C1C16E00C1C4968E9E7144C2068002803D1301C00F04BF82060301C291C00F046F8431C15D0C41C03239C4384420AD12560201C0B300722231DF6
:4048C0009043C31A0BD05A42E25008E0211A301C00F030F80130EED10C233360002070BD0804002004040020F8B5061C0C1C151C002904D1111CFFF7A3FF041C18E0002A58
:4049000003D1FFF755FF2C1C12E000F02CF8A8420ED2301C291CFFF793FF071E07D0211C2A1CFFF7FDFB301C211CFFF741FF3C1C201CF8BD38B5074C0023051C081C236088
:40494000FCF7DEFA431C03D12368002B00D02B6038BDC0467C0B00200023C25C0133002AFBD1581E704704390B68181F002B02DAC8581B18181F704700000000496E666F33
:40498000007B226E223A22496E6E65725072657373757265222C2274223A2269222C2276223A002C7B226E223A224F757465725072657373757265222C2274223A22692202
:4049C0002C2276223A002C7B226E223A2243757272656E74466C6F77222C2274223A2269222C2276223A002C7B226E223A22546F74616C566F6C756D65222C2274223A22C7
:404A000069222C2276223A002C7B226E223A2256616C7665537461747573222C2274223A2269222C2276223A002C7B226E223A224C61737453746172744E756D62657222A5
:404A40002C2274223A2269222C2276223A002C7B226E223A224C6173745374617274566F6C756D65222C2274223A2269222C2276223A002C7B226E223A224C61737453745F
:404A8000617274466C6F77222C2274223A2269222C2276223A007570646174654F7056616C730A0D0050726573737572652031203D2025640D0A00507265737375726520DB
:404AC00032203D2025640D0A00466C6F77203D2025640D0A0000000002000F4037320F4023330F4002400F4003410F4002420F4002430F4002600F408267837F0004030313
:404B00000E0C140119011E032E013008320233023404360137013E503F4040144106455C4620470E483B49FF4AFF4BFF4DA04F01501852805407580459045A045B045C117D
:404B40005D115F016040628064406540668068406A506BA86C406D206E506FA8B820BE10D602D804DB04DD30DF01050106010E12174018081D811E182640272037203E2033
:404B80003F1245824C044F06550256295E885F1066086704728077408280A201B601C090C2A0C480CC20CE80D090D220D670D8606F04DA8083049F04E2800901C208B5014C
:404BC000EA08100A11010000030405060708090A0B0C0E0F101112131415161718191B1C1D1E1F2021222325262728292A2B2E2F3031323334357B2264657374696E6174AE
:404C0000696F6E223A002C22736F75726365223A002C226F72646572223A2200736C656570506572696F640073687574646F776E54696D65007465737400696E6E657250FC
:404C400072657373757265006F7574657250726573737572650063757272656E74466C6F7700746F74616C566F6C756D650076616C7665537461747573006C61737453744F
:404C80006172744E756D626572006C6173745374617274566F6C756D65006C6173745374617274466C6F7700737461727454696D650073746F7054696D65006E756D537487
:404CC0006172747300766F6C5065725374617274006D6178566F6C006D696E566F6C006665727469676174696F6E5461626C6530006665727469676174696F6E5461626CB5
:404D00006531006665727469676174696F6E5461626C6532006665727469676174696F6E5461626C6533006665727469676174696F6E5461626C65340066657274696761D6
:404D400074696F6E5461626C6535006665727469676174696F6E5461626C6536006665727469676174696F6E5461626C6537006665727469676174696F6E5461626C65382B
:404D8000006665727469676174696F6E5461626C6539006E6F744265666F7265006E6F7441667465720064696C7574696F6E466163746F72410064696C7574696F6E466138
:404DC00063746F72420076656E7475726953756374696F6E410076656E7475726953756374696F6E42007371756172654D6574657273006C50657253714D65746572506548
:404E0000724461790063726F705479706500546573740049646C650053687574646F776E002C227061796C6F6164223A7B226E223A22736C656570506572696F64222C2209
:404E400074223A2269222C2276223A002C227061796C6F6164223A7B226E223A2273687574646F776E54696D65222C2274223A2269222C2276223A002C227061796C6F618C
:404E800064223A7B226E223A2274657374222C2274223A2273222C2276223A002C227061796C6F6164223A7B226E223A22696E6E65725072657373757265222C2274223A00
:404EC0002269222C2276223A002C227061796C6F6164223A7B226E223A226F757465725072657373757265222C2274223A2269222C2276223A002C227061796C6F616422D9
:404F00003A7B226E223A2263757272656E74466C6F77222C2274223A2269222C2276223A002C227061796C6F6164223A7B226E223A22746F74616C566F6C756D65222C22DD
:404F400074223A2269222C2276223A002C227061796C6F6164223A7B226E223A2276616C7665537461747573222C2274223A2269222C2276223A002C227061796C6F616490
:404F8000223A7B226E223A226C61737453746172744E756D626572222C2274223A2269222C2276223A002C227061796C6F6164223A7B226E223A226C6173745374617274F5
:404FC000566F6C756D65222C2274223A2269222C2276223A002C227061796C6F6164223A7B226E223A226C6173745374617274466C6F77222C2274223A2269222C227622E2
:405000003A002C227061796C6F6164223A7B226E223A22737461727454696D65222C2274223A2269222C2276223A002C227061796C6F6164223A7B226E223A2273746F706C
:4050400054696D65222C2274223A2269222C2276223A002C227061796C6F6164223A7B226E223A226E756D537461727473222C2274223A2269222C2276223A002C2270617A
:40508000796C6F6164223A7B226E223A22766F6C5065725374617274222C2274223A2269222C2276223A002C227061796C6F6164223A7B226E223A226D6178566F6C222C7D
:4050C0002274223A2269222C2276223A002C227061796C6F6164223A7B226E223A226D696E566F6C222C2274223A2269222C2276223A002C227061796C6F6164223A7B2221
:405100006E223A226665727469676174696F6E5461626C6530222C2274223A226961222C2276223A002C227061796C6F6164223A7B226E223A226665727469676174696F16
:405140006E5461626C6531222C2274223A226961222C2276223A002C227061796C6F6164223A7B226E223A226665727469676174696F6E5461626C6532222C2274223A2205
:405180006961222C2276223A002C227061796C6F6164223A7B226E223A226665727469676174696F6E5461626C6533222C2274223A226961222C2276223A002C2270617909
:4051C0006C6F6164223A7B226E223A226665727469676174696F6E5461626C6534222C2274223A226961222C2276223A002C227061796C6F6164223A7B226E223A2266651C
:40520000727469676174696F6E5461626C6535222C2274223A226961222C2276223A002C227061796C6F6164223A7B226E223A226665727469676174696F6E5461626C6571
:4052400036222C2274223A226961222C2276223A002C227061796C6F6164223A7B226E223A226665727469676174696F6E5461626C6537222C2274223A226961222C2276A0
:40528000223A002C227061796C6F6164223A7B226E223A226665727469676174696F6E5461626C6538222C2274223A226961222C2276223A002C227061796C6F6164223AB7
:4052C0007B226E223A226665727469676174696F6E5461626C6539222C2274223A226961222C2276223A002C227061796C6F6164223A7B226E223A226E6F744265666F729E
:4053000065222C2274223A2269222C2276223A002C227061796C6F6164223A7B226E223A226E6F744166746572222C2274223A2269222C2276223A002C227061796C6F61BA
:4053400064223A7B226E223A2264696C7574696F6E466163746F7241222C2274223A2269222C2276223A002C227061796C6F6164223A7B226E223A2264696C7574696F6E4A
:40538000466163746F7242222C2274223A2269222C2276223A002C227061796C6F6164223A7B226E223A2276656E7475726953756374696F6E41222C2274223A2269222CD6
:4053C0002276223A002C227061796C6F6164223A7B226E223A2276656E7475726953756374696F6E42222C2274223A2269222C2276223A002C227061796C6F6164223A7B4C
:40540000226E223A227371756172654D6574657273222C2274223A2269222C2276223A002C227061796C6F6164223A7B226E223A226C50657253714D657465725065724474
:405440006179222C2274223A2269222C2276223A002C227061796C6F6164223A7B226E223A2263726F7054797065222C2274223A2269222C2276223A002C227061796C6F52
:405480006164223A6E756C6C00760069006961002C227061796C6F6164223A7B226F61223A5B005D7D002C22666C616773223A2200524551005245515F41434B004E41432C
:4054C0004B0050555348004552520064657374696E6174696F6E0061746F6D5479706500570061746F6D496400736F7572636500666C616773006F72646572007061796C1E
:405500006F61640053657400476574004D6F6465007B2261746F6D54797065223A2257222C2261746F6D4964223A307D004300232D302B2000686C4C006566674546470098
:40554000303132333435363738394142434445460030313233343536373839616263646566000000F8B5C046F8BC08BC9E467047B9020000790F0000F8B5C046F8BC08BCF3
:405580009E4670479102000098550000C800002030020000880800000000000000000000000000000000000000000000010000000000000000000000000000000200000023
:4055C0000000000000000000000000000300000000000000000000000000000004000000000000000000000000000000050000000000000000000000000000000600000099
:4056000000000000000000000000000007000000000000000000000000000000080000000100000005000000050000000900000001000000060000000B0000000A0000002B
:405640000100000007000000120000000B00000001000000080000001A0000000C0000000100000009000000230000000D000000010000000A0000002D0000000E00000056
:405680000100000009000000360000000F00000001000000080000003E000000100000000100000007000000450000001100000001000000060000004B0000001200000082
:4056C00000000000000000004B0000001300000000000000000000004B0000001400000000000000000000004B0000001500000000000000000000004B000000160000002C
:4057000000000000000000004B0000001700000000000000000000004B000000800B00200000E02EC05D00001800000000366E013C0500202C0100007D0200208902002051
:405740007B2261746F6D54797065223A2258222C2261746F6D4964223A307D000101000000000000000000000000000000000000000000000000000000000000000000008A
:405780002D55000000000000000000000000000000000000000000000000000000000000000000000000000000000000000000000000000000000000000000000000000067
:4057C00090020020000000000000000000000000000000000000000000000000000000000000000000000000000000000000000000000000000000000000000000000000F7
:405800000000000000000000000000000000000000000000000000000000000000000000000000000000000000000000000000000000000000000000000000000000000068
:405840000000000000000000000000000000000000000000000000000000000000000000000000000000000000000000000000000000000000000000000000000000000028
:4058800000000000000000000000000000000000000000000000000000000000000000000000000000000000000000000000000000000000000000000000000000000000E8
:4058C00000000000000000000000000000000000000000000000000000000000000000000000000000000000000000000000000000000000000000000000000000000000A8
:0200000490303A
:02000000690392
:0200000490402A
:200000000000000000000000000000000000000000000000000000000000000000000000E0
:0200000490501A
:0C000000000204C81193110104E47A9678
:0200000490600A
:0100000001FE
:00000001FF