:400000000010002011000000E1160000E116000080B500AF01F068FB80B500AF1B4B1B4A12688021C9020A431A60182001F090FD164B164A1168164A0A401A60154B164A29
:400040001A60164B10221A60154B20221A60154B30221A60144B21221A60144B802212061A60134B134A1A60134B124A1A60134B134A1A60134B144A1A60144B144A1A60F7
:40008000144B00221A60BD4680BDC04600010B40FFFFFBFF04010B4006000080080202400C020240340202403C02024008010B4000000240100000804000024080000240E7
:4000C000DF2E008004000240ED020080440002407F0200C00C020B4080B582B000AF72B64C4B01221A70FB1D00221A7023E0FB1D1A78131C5B009B185B00474A9B183B6034
:400100003B681A78597809020A43997809040A43DB781B0613431A1C3B6819795B791B020B439BB2101C191C01F05CFBFB1D1A78FB1D01321A70FB1D1B78012BD7D9374A05
:40014000374B101C191C01F05DFB364BA02212011A80354B01221A70344B992212041A60334BEE2212021A60324B99221A60324B324A1A60324B334A1A60334B9922120468
:400180001A60324B992212041A60314B06221A60304B06221A60304B2F4A1278D2B202210A43D2B21A702D4B2C4A1278D2B23C218A43D2B214210A43D2B21A70264B264A27
:4001C0001278D2B216210A43D2B21A70244B2A221A60244B244A1A60244BC0221A60244B20221A60234BC02252031A60224BD82212011A60214B02221A60214B31221A6087
:40020000204B02221A60FFF707FF01F03BFBBD4602B080BD1C700F408869000094690000B069000000600F4002600F40000001400C0001401000014000500F400400990043
:4002400004500F400000808010500F4030500F402000004000800F4000700F4001700F400000044008000440361823000C000440180004400801044008030440000404401E
:40028000080404401804044010B5064C2378002B07D1054B002B02D0044800E000BF0123237010BDA8020020000000004867000008B5084B002B03D00748084900E000BF57
:4002C00007480368002B03D0064B002B00D0984708BDC0460000000048670000AC020020C80000200000000080B582B000AF786003F05AF9BD4602B080BDC04680B582B058
:4003000000AF78607B681B78303BDBB2181C03F02BFCBD4602B080BD80B500AF03F04AFC031C002B01D0034B00E0034B181CBD4680BDC0464C6700005067000080B500AF0C
:40034000012001F08FFE031C181CBD4680BDC04680B582B000AF78600223FF33181C01F0EBFD0223FF33181C01F0D4FE7B680120191C01F041FE0223FF33181C01F0A8FD1B
:40038000BD4602B080BDC04680B500AF0123181CBD4680BD80B582B000AF7860BD4602B080BDC046F0B583B000AF5A4B1A685A4B101C191C162206F09FF9564B1B681A1C0F
:4003C0001532544B1A60554B1B68153B1A1C534B1A60504B1E68514B1D68514B1B78181C0C2105F0EBF80B1CDBB21A1C4D4B9200D358181C06F008F9031C0C1C301C291CF0
:400400001A1C231C04F084F9031C7B60414B1A687B68D2183F4B1A60404B1A687B68D21A3E4B1A603B4B1B68591C3A4A11607D221A703A4B1B685A1E384B1A60354B1A6803
:40044000394B101C191C182206F056F9314B1B681A1C17322F4B1A60304B1B68173B1A1C2E4B1A602B4B1E682C4B1D682F4B1B78181C072105F0A2F80B1CDBB21A1C2C4BDC
:400480009200D358181C06F0BFF8031C0C1C301C291C1A1C231C04F03BF9031C7B601D4B1A687B68D2181B4B1A601C4B1A687B68D21A1A4B1A60174B1B68591C154A1160D7
:4004C0007D221A70154B1B685A1E144B1A60114B1A68184B101C191C272206F00DF90D4B1B681A1C26320B4B1A600C4B1B68263B1A1C0A4B1A600A4B1B780133DAB2084B44
:400500001A700A4B1B780133DAB2084B1A70BD4603B0F0BD5C0200205467000060020020C5020020B46700006C670000C6020020E46700008467000080B582B000AF021C67
:40054000FB1D1A70FB1D1B78012B12D002DC002B0AD014E0022B02D0032B0FD00FE0094B181C00F023FB0AE0064B181C00F00AFB05E0044B181C00F00FFB00E0C046BD4609
:4005800002B080BDB803002080B582B000AF78607A68064B111C1A1C0523081C111C1A1C06F0AAF87868BD4602B080BDD403002080B500AF084B181C01F076FD074B181C88
:4005C00000F0FEFA064B1B78DBB203221343DAB2034B1A70BD4680BD04040000B8030020C402002080B500AF0C4B00221A700B4B2B225A70094B0A229A70084B0122DA701C
:40060000064BDA78054B1A71054B1B78DBB201221343DAB2024B1A70BD4680BDD4030020C402002080B500AF124B1B78DBB203229343DAB20F4B1A7001F028F901F02CF9DF
:4006400001F03AF902F044FF00F06AFE002000F075F80223FF33181C01F06EFC064B181C01F0D6F90223FF33181C01F031FC62B6BD4680BDC4020020B105000080B500AFA0
:4006800001F01AF9BD4680BD80B500AF01F026F9BD4680BD80B500AF244BDB78012B16D1224B1B780133DAB2204B1A701F4B1B783B2B12D91D4B5B780133DAB21B4B5A70DB
:4006C0001A4B1B783C3BDAB2184B1A7005E0174B5B780133DAB2154B5A70144B5B783B2B12D9124B9B780133DAB2104B9A700F4B5B783C3BDAB20D4B5A700C4B9B78172BF8
:4007000002D90A4B00229A70084B9B78092B07D9064B9B78102B03D8044B0122DA7002E0024B0222DA70BD4680BDC046D403002080B500AFFFF7AEFFBD4680BD80B582B0A5
:4007400000AF021CFB1D1A700223FF33181C01F0F3FBFB1D1B78012B25D002DC002B05D030E0022B24D0032B27D02BE00020002101F046FB0120012101F042FB082001F098
:400780000FFC0020012101F06BFB0120012101F067FB104B0020191C01F02EFC01200A2101F02AFC0EE00120012101F025FC09E001203C2101F020FC04E001203C2101F0C7
:4007C0001BFCC0460223FF33181C01F081FBBD4602B080BDFF7C000080B500AFFFF7A8FF0A4B1A79094BDB789A4204D0074BDB78181CFFF7A3FF054BDA78044B1A71FFF7D4
:4008000043FF00F047FEBD4680BDC046D403002080B500AF00F056FE054B1B78DBB203229343DAB2024B1A70FFF728FFBD4680BDC402002080B500AFFFF7D4FEFFF7F2FE39
:400840000B4B181C00F016F8094B181C00F03CF8074B181C00F0BEFD054B181CFFF744FD034B181C00F0B8F800F0FEFDF0E7C046B803002080B584B000AF78600023FB6025
:4008800007E07A68FB68D3180A221A70FB680133FB60FB68002BF4DD7B6800225A607B68181C00F07BF87B68181C00F08DF87B680022DA607B6800221A617B6800225A61D6
:4008C000BD4604B080BDC04680B582B000AF78607B68181C00F07EF97B6809221A707B6800225A60BD4602B080BDC04680B582B000AF78607B681B78092B45D89A00264B83
:40090000D3181B689F467B680A221A707B6800225A60FFF77DFF38E07B680A221A707B6800225A6031E07B680A221A707B6800225A602AE07B680A221A707B6800225A605F
:4009400023E07B680A221A707B6800225A601CE07B680A221A707B6800225A607B6818337A68101C191C00F023FD0EE07B680A221A707B6800225A6007E07B680A221A7081
:400980007B6800225A6000E0C0467B68181C00F029F9BD4602B080BD0068000080B582B000AF78607B6800221A727B6800225A727B6800229A727B680022DA727B68002258
:4009C0001A76BD4602B080BD80B582B000AF7860BD4602B080BDC04680B582B000AF78607B68181CFFF7F0FF7B6800225A6038E07B685B687A68D35C092B2CD89A001E4BDC
:400A0000D3181B689F467B68181C00F0F3F823E07B68181C00F022F91EE07B68181C00F0CBF919E07B68181C00F028FA14E07B68181C00F0A9FA0FE07B68181C00F024FBAE
:400A40000AE07B68181C00F083FB05E07B68181C00F09CFB00E0C0467B685B685A1C7B685A607B685B68002BC2D07B68181CFFF795FFBD4602B080BD2868000080B582B0F8
:400A800000AF786039603A687B6818339A4208DB3A687B68183301339A4202D23B6801221A70BD4602B080BD80B582B000AF78600A1CFB1C1A70FB1C1B78092B5BD89A0031
:400AC0002F4BD3181B689F467B681B785A425341DBB251E07B681B78002B05D07B681B78062B01D8012300E000231A1C01231340DBB241E07B681B78023B5A425341DBB2DD
:400B00003AE07B681B78033B5A425341DBB233E07B681B78043B5A425341DBB22CE07B681B78053B5A425341DBB225E07B681B78063B5A425341DBB21EE07B681B78062B08
:400B400005D97B681B78082B01D8012300E000231A1C01231340DBB20EE07B681B78083B5A425341DBB207E07B681B78093B5A425341DBB200E00023181CBD4602B080BDC9
:400B80005068000080B582B000AF78607B6801221A72BD4602B080BD80B582B000AF78607B6801225A72BD4602B080BD80B582B000AF78607B6801229A72BD4602B080BD67
:400BC00080B582B000AF78607B680122DA72BD4602B080BD80B582B000AF7860BD4602B080BDC04680B582B000AF7860BD4602B080BDC04680B582B000AF78607B68DB7AD1
:400C0000002B15D07B680A221A707B6800225A60FFF7FEFD00F0A6FC00F0E4FC021C7B685A617B6802221A707B6800225A6011E07B689B7A002B0DD07B680A221A707B6880
:400C400000225A60FFF7E4FD7B6809221A707B6800225A60BD4602B080BDC04680B582B000AF78607B689B7A002B3AD07B681B78062B2ED89A004E4BD3181B689F467B6841
:400C80000A221A707B6800225A6023E07B680A221A707B6800225A601CE07B680A221A707B6800225A6015E07B680A221A707B6800225A600EE07B680A221A707B68002237
:400CC0005A607B6818337A68101C191C00F070FB00E0C0467B6809221A707B6800225A6063E07B680A221A707B6800225A607B685B69002B10DD00F0CBFC021C7B68DA60E5
:400D000000F0BAFC021C7B681A617B6805221A707B6800225A6048E07B685B69002B08D100F0C8FC7B6804221A707B6800225A603BE07B681B78062B2ED89A001D4BD318B0
:400D40001B689F467B680A221A707B6800225A6023E07B680A221A707B6800225A601CE07B680A221A707B6800225A6015E07B680A221A707B6800225A600EE07B680A22BA
:400D80001A707B6800225A607B6818337A68101C191C00F00DFB00E0C046FFF71DFD7B6800221A707B6800225A60BD4602B080BD786800009468000080B582B000AF786081
:400DC0007B689B7A002B3AD07B681B78062B2ED89A00294BD3181B689F467B680A221A707B6800225A6023E07B680A221A707B6800225A601CE07B680A221A707B6800226B
:400E00005A6015E07B680A221A707B6800225A600EE07B680A221A707B6800225A607B6818337A68101C191C00F0C2FA00E0C0467B6809221A707B6800225A6019E07B682F
:400E40000A221A707B6800225A607B681A1C18327968FA239B00081C111C1A1C002300F07BFA00F035FC7B6806221A707B6800225A60BD4602B080BDB068000080B582B00C
:400E800000AF78607B689B7A002B3AD07B681B78062B2ED89A003A4BD3181B689F467B680A221A707B6800225A6023E07B680A221A707B6800225A601CE07B680A221A7017
:400EC0007B6800225A6015E07B680A221A707B6800225A600EE07B680A221A707B6800225A607B6818337A68101C191C00F060FA00E0C0467B6809221A707B6800225A60A8
:400F00003BE07B681B78062B2ED89A001D4BD3181B689F467B680A221A707B6800225A6023E07B680A221A707B6800225A601CE07B680A221A707B6800225A6015E07B68B5
:400F40000A221A707B6800225A600EE07B680A221A707B6800225A607B6818337A68101C191C00F025FA00E0C046FFF735FC7B6800221A707B6800225A60BD4602B080BDE9
:400F8000CC680000E868000080B582B000AF78607B689B7A002B3AD07B681B78062B2ED89A00384BD3181B689F467B680A221A707B6800225A6023E07B680A221A707B689E
:400FC00000225A601CE07B680A221A707B6800225A6015E07B680A221A707B6800225A600EE07B680A221A707B6800225A607B6818337A68101C191C00F0DAF900E0C04614
:401000007B6809221A707B6800225A6037E07B680A221A707B6800225A607B681A697B68DB689A4208DB00F045FB7B6804221A707B6800225A6022E07B681A697B68DB688F
:401040009A4208DA00F02CFB7B6803221A707B6800225A6013E07B681A1C18327968FA239B00081C111C1A1C002300F075F900F02FFB7B6806221A707B6800225A60BD46E2
:4010800002B080BD0469000080B582B000AF78607B689B7A002B3AD07B681B78062B2ED89A002A4BD3181B689F467B680A221A707B6800225A6023E07B680A221A707B68D3
:4010C00000225A601CE07B680A221A707B6800225A6015E07B680A221A707B6800225A600EE07B680A221A707B6800225A607B6818337A68101C191C00F05AF900E0C04693
:401100007B6809221A707B6800225A601BE07B681B7E002B17D07B680A221A707B6800225A607B6818337A68101C191C00F040F900F058FA021C7B685A617B6802221A704E
:401140007B6800225A60BD4602B080BD2069000080B582B000AF78607B689B7A002B11D07B681B78082B00D006E07B680A221A707B6800225A60C0467B6809221A707B680B
:4011800000225A60BD4602B080BDC04680B582B000AF78607B685B7A002B0CD07B680A221A707B6800225A607B6808221A707B6800225A6011E07B681B7A002B0DD07B68AC
:4011C0000A221A707B6800225A60FFF705FB7B6800221A707B6800225A60BD4602B080BDB0B582B000AF021C3960FB1D1A70FB1D1B787F2B32D93049FB1D1B781A1C0F23B9
:401200001340083B98082C4AFB1D1B781C1C0F232340083B9B0806339B00D3185B68FA1D1278141C03222240D200FF24251C95402A1CD2431A403B689C01FF231C40FB1D34
:401240001B781D1C03232B40DB00251C9D402B1C1A43831D9B00CB185A6029E0174BFA1D127852B292081549F81D007840B28008C03080004158F81D0078041C0320204054
:40128000C000FF24251C8540281CC043084039688C01FF210C40F91D09780D1C03212940C900251C8D40291C0143C0329200D150BD4602B0B0BDC04600ED00E000E100E014
:4012C00080B582B000AF78607B685A1E0C4B9A4201D9012310E00B4B7A68013A5A6001235B42181C0321FFF77BFF064B00229A60044B07221A600023181CBD4602B080BD26
:40130000FFFFFF0010E000E080B500AF034B1B685A1C024B1A60BD4680BDC046D802002080B500AF054B0F20191C00F007FF044B181CFFF7C5FFBD4680BDC0460913000081
:40134000C05D000080B500AF024B1B68181CBD4680BDC046D8020020B0B584B000AFF860B9607A601A1CFB1C1A70BA68FB681833D31A78680C4A11680C4A1C01BD68A550C5
:401380000A4C1A01A218506008481A01821808321160064A1B01D3180833FA1C12781A71BD4604B0B0BDC046D8020020C802002080B582B000AF786039603A687B68183380
:4013C000D21A034B12010021D150BD4602B080BDC802002080B584B000AF7860204B1B68BB600023FB6035E01E4BFA681201D358002B2CD01B4AFB681B01D31808331B6839
:40140000BA68D21A1749FB681B01CB185B689A421DD3144BFA681201D3587A68101C191CFFF72CFB0F4AFB681B01D31808331B79002B07D00B4AFB681B01D3180833BA683E
:401440001A6004E0074BFA6812010021D150FB680133FB60FB68002BC6D0BD4604B080BDD8020020C802002080B500AF074B1B68002B06D0064B1B68002B02D100F076FF26
:4014800001E000F059FFBD4680BDC046DC020020E002002090B583B000AFFC1D00F01EFB031C2370064B1B685A1C054B1A60FB1D1B78181C00F016FBBD4603B090BDC046C5
:4014C000DC02002090B583B000AFFC1D00F006FB031C2370084B1B68002B04D0064B1B685A1E054B1A60FB1D1B78181C00F0FAFABD4603B090BDC046DC02002090B583B0DE
:4015000000AFFC1D00F0EAFA031C2370064B1B685A1C054B1A60FB1D1B78181C00F0E2FABD4603B090BDC046E002002090B583B000AFFC1D00F0D2FA031C2370084B1B680F
:40154000002B04D0064B1B685A1E054B1A60FB1D1B78181C00F0C6FABD4603B090BDC046E002002090B585B000AF1B4C3B1C181CFFF70AF83B1C211C1A1C0523081C111C66
:401580001A1C05F0B9F8154B134A1168196012791A71114B9B78124A1B01D31804331B68FB600E4B5A78FB68DBB2D318DAB20B4B5A700A4B5B783B2B0BD9084B9B780133E5
:4015C000DAB2064B9A70054B5B783C3BDAB2034B5A70BD4605B090BDEC030020E0030020CC00002090B585B000AF1E4C3B1C181CFEF7CAFF3B1C211C1A1C0523081C111CA4
:401600001A1C05F079F8174B9B78174A1B01D31804331B68FB60134B9A78144B9B789A4201D90023FB600F4B9A78104B9B789A4207D10C4B5A780D4B5B789A4201D3002351
:40164000FB600B4B181C00F0C9F9FB68181C00F05BF9084B181C00F0C1F90123181CBD4605B090BDEC030020CC000020E00300204C6900005C69000080B500AF034B181C8C
:4016800000F0ACF90123181CBD4680BD6069000080B500AFFA239B00181CBD4680BDC04680B500AF024B181C00F098F9BD4680BD7069000080B500AF044B181C00F08EF941
:4016C000002002F051FABD4680BDC0467C69000080B500AF012002F047FABD4680BDC04680B500AFFEE7C04680B586B000AF224B7B61224B3B61204B7B6135E03B691B6826
:40170000FB603B695B68BB603B699B683B6000237B600CE0FB681A68BB681A60BB680433BB60FB680433FB607B6804337B607A683B689A42EED13B69DB683B6000237B601F
:4017400008E0BB6800221A60BB680433BB607B6804337B607A683B689A42F2D13B6910333B617B69013B7B617B69002BC6D104F09DFFFFF75FF8FEE701000000006E0000DE
:4017800080B582B000AF00237B600FE07B68032B04D8104B7A689200D35800E00E4B0F4A796889008B507B6801337B607B682F2BECD9FEF791FC0A4B00221A608023DB057E
:4017C0008022D205126801210A431A60BD4602B080BDC04600000000E116000000000020C000002080B582B000AF786039607A683B68101C00211A1C04F087FFBD4602B060
:4018000080BDC04680B586B000AF7860396000233B6100237B612EE07B699B007A68D3181B68BB603B1C0F33BA681A70BB68FF229343BB6017E03B695B003A68D3181B7894
:401840001A1CBB68D3183A69520039688A1852781A703B6901333B613B1C0F331A783B1C0F33013A1A703B1C0F331B78002BE2D17B6901337B617B69062BCDD9BD4606B029
:4018800080BDC04680B500AFBD4680BD80B500AF00F050F8BD4680BD80B500AF054B054A1268802109060A431A6000F025F8BD4680BDC0460000074080B500AF064B1B788F
:4018C000002B04D1FFF7E2FF034B01221A70FFF7E3FFBD4680BDC046E402002080B500AF044B044A1268520052081A6000F008F8BD4680BD0000074080B500AFBD4680BD36
:4019000080B500AFBD4680BD80B582B000AF7860C046064B1A680F231340082BF9D0044B7A681A60BD4602B080BDC046080207404002074080B500AF174B184A1A60184B39
:4019400000221A60174B01221A60174B174A1A60174B07221A60174B00221A60164B01221A60164B114A1A60154B00221A60154B00221A60144B00221A60144B00221A606A
:40198000134B00221A60134B00221A60124B00221A60BD4680BDC046000007400B00000240000740480007400003074007000080040307401003074044000740000207403D
:4019C00004020740880E0740C80E0740480F0740080F0740C80F0740880F074080B584B000AF78600023FB6009E07A68FB68D3181B78181CFFF788FFFB680133FB607A6809
:401A0000FB68D3181B78002BEFD1BD4604B080BD80B582B000AF786000F04AF87B68181C00F008F8032000F011F800F037F8BD4602B080BD80B582B000AF7860024B7A6875
:401A40005A66BD4602B080BD0000002090B585B000AF021CFB1D1A700E23FB603C1C0B3400F03CF8031C23700A4B0A4A11680A4A1140FA1D1078FA68041C9440221C0A436B
:401A80001A603B1C0B331B78181C00F02BF8BD4605B090BD08E400E0FF3FFFFF80B500AF024B802292001A60BD4680BD00E100E080B500AF024B802292001A60BD4680BD31
:401AC00080E100E0000000000230800804D0C0460138FDD1C046C046C0467047EFF3108072B6704780F310887047C046C046C04680B500AF044B044A1268802109060A4324
:401B00001A60BD4680BDC04604010B4090B585B000AF78603C1C0F34FFF7E0FF031C2370094B796807220A40D104074A1068074A02400A431A603B1C0F331B78181CFFF77C
:401B4000D1FFBD4605B090BD00010B40FFFFC7FF90B585B000AF78607B68022B00D8BAE07B68302B00D9B6E05E4B1B78DBB21A1C7B689A420AD35C4A3B1C0F3312781A7062
:401B80005A4A3B1C0E3312781A703FE0584B1B78DBB21A1C7B689A420AD3564A3B1C0F3312781A70544A3B1C0E3312781A702DE0524B1B78DBB21A1C7B689A420AD3504A54
:401BC0003B1C0F3312781A704E4A3B1C0E3312781A701BE04C4B1B78DBB21A1C7B689A420AD34A4A3B1C0F3312781A70484A3B1C0E3312781A7009E0464A3B1C0F33127855
:401C00001A70454A3B1C0E3312781A707B68DA1E3B1C0C3341498A5C1A703C1C0B34FFF75DFF031C23703B1C0C331B782F2B0DD97B682A2B0AD93A4B19221A600520FFF700
:401C400043FF3B1C0D3319221A7007E0344B1B68D9B23B1C0D333F220A401A703A1C0C323B1C0D3312781B789A4208D22C4B7A68033A2A498A5C1A600520FFF725FF294B6C
:401C80007A68254952181278D2B21A60264B3A1C0F3212781A60254B3A1C0E3212781A60052000F035FB3A1C0C323B1C0D3312781B789A4208D91A4B7A68033A17498A5CB8
:401CC0001A600520FFF700FF3B1C0B331B78181CFFF708FF02E0002000F010FBBD4605B090BDC046C0F1FF0FC1F1FF0FC2F1FF0FC3F1FF0FC4F1FF0FC5F1FF0FC6F1FF0FA1
:401D0000C7F1FF0FC8F1FF0FC9F1FF0FCAF1FF0FCBF1FF0FCCF1FF0FCDF1FF0FFC6900002CFF0B4028FF0B401CFF0B4020FF0B4090B583B000AFFC1DFFF7D0FE031C237051
:401D4000074B074A1268C02109020A431A60FB1D1B78181CFFF7C6FEBD4603B090BDC04600010B4080B500AF054B1A68C0231B02134001D0012300E00023181CBD4680BD30
:401D800000010B4090B583B000AFFC1DFFF7A6FE031C23700C4B0C4A11680C4A0A408021C9010A431A60084B074A1168074A0A40802109020A431A60FB1D1B78181CFFF753
:401DC00091FEBD4603B090BD00010B40FF3FFFFF80B582B000AF78607B68022B02D9002000F08CFA054B1A687B68DB000133DA4001231340181CBD4602B080BD10020B4082
:401E000080B584B000AF786039607B68022B02D9002000F073FA7B68181CFFF7D9FF031C002B18D10D4B1B687A68D2000321081C9040021CD2431340FB603A6803231A40EF
:401E40007B68DB00111C99400B1CFA681343FB60024BFA681A60BD4604B080BD0C020B4080B584B000AF786039607B68002B02D07B68012B01D1012300E00023002B02D17F
:401E8000002000F03BFA7B68181CFFF7A1FF031C002B18D10D4B1B687A68D20002320121081C9040021CD2431340FB607B68DB0002333A68111C99400B1CFA681343FB606E
:401EC000024BFA681A60BD4604B080BD0C020B4080B582B000AF7860FFF70AFE154B154A11687A680A431A607A680123134006D0C0460020FFF76CFF031C002BF9D07A68F4
:401F000080235B00134006D0C0460120FFF760FF031C002BF9D07A6880235B02134006D0C0460220FFF754FF031C002BF9D0BD4602B080BD10020B4080B582B000AF78601F
:401F4000164B164A12687968C9430A401A607A680123134006D0C0460020FFF739FF031C002BF9D17A6880235B00134006D0C0460120FFF72DFF031C002BF9D17A688023F3
:401F80005B02134006D0C0460220FFF721FF031C002BF9D1BD4602B080BDC04610020B4090B585B000AF78600020FFF711FF041C0120FFF70DFF031C1C430220FFF708FFED
:401FC000031C2343FB60FB68002B0DD1084B1B68BB60BA68074B1340BB60BA687B681343BB60034BBA681A60BD4605B090BDC0460C020B40F7F7FFFF80B584B000AF786022
:4020000039607B68002B02D07B68012B01D1012300E00023002B02D1002000F06FF9C92000F076F90D4B1B68FB607B681B010C4A111C99400B1CDA43FB681340FB60074B29
:402040007A68120139689140FA680A431A60432000F05EF9BD4604B080BDC04608020B40FFFF000080B582B000AF78607B68002B02D07B68012B01D1012300E00023002BD8
:4020800002D1002000F03AF9064B1A687B681B01111CD9400B1C1B041B0C181CBD4602B080BDC04608020B4090B585B000AF78603C1C0B34FFF712FD031C2370FFF752FE6F
:4020C000031C002B04D00123FB60FFF75BFE01E00023FB607A680C4B13407B600B4B0B4A11680B4A11407A680A431A60FB68012B01D1FFF71DFE3B1C0B331B78181CFFF7F7
:40210000F1FCBD4605B090BD0404040010020B40FBFBFBFF80B582B000AF7860054B054A11687868044A02400A431A60BD4602B080BDC04610020B400808080080B584B041
:4021400000AF021C3960FB1D1A7080239B05FB60FB1D1B780F2B02D9002000F0CFF8FB1D1B789B00FA68D3181B68BB60FB1D1B789B00FA68D3183A681A60BB68181CBD46E8
:4021800004B080BD80B584B000AF021C3960FB1D1A7080239B05FB60FB1D1B781F2B02D9002000F0ABF8FB1D1B7810339B00FA68D3181B68BB60FB1D1B7810339B00FA683D
:4021C000D3183A681A60BB68181CBD4604B080BD90B587B000AF0A1CFB1D011C1970BB1D1A70BB1D1B78032B02D9002000F086F8FB1D1B781F2B02D9002000F07FF8FB1DAB
:402200001A7803231340DB0006337B613C1C1334FFF764FC031C2370FB1D1B789B08DBB29B0014495B181B68FB607B690322111C99400B1CDA43FB681340FB60BB1D1A780A
:402240007B69111C99400B1CFA681343FB60FB1D1B789B08DBB29B00064A9B18FA681A603B1C13331B78181CFFF73CFCBD4607B090BDC04600E400E080B582B000AF021C4E
:40228000FB1D1A70064BFA1D11781F220A400121081C9040021C1A60BD4602B080BDC04600E100E080B582B000AF021CFB1D1A70064BFA1D11781F220A400121081C904031
:4022C000021C1A60BD4602B080BDC04680E100E080B582B000AF021CFB1D1A70064BFA1D11781F220A400121081C9040021C1A60BD4602B080BDC04680E200E080B582B06C
:4023000000AF021CFB1D1A7001BEBD4602B080BD80B582B000AF021CBB1D1A80BB1D1B88044A12785343181CFFF7CEFBBD4602B080BDC0465402002090B583B000AFFC1D4D
:40234000FFF7CCFB031C2370074B074A126804218A431A6030BFFB1D1B78181CFFF7C2FBBD4603B090BDC04610ED00E090B583B000AFFC1DFFF7B2FB031C2370194B194AA2
:402380001268520052081A608023DB058022D205126802210A431A60134B144A128892B21A60134B124A126804210A431A60114B1B683B600220FFF7A9FB30BF0D4B3A68CA
:4023C0001A608023DB058022D205126802218A431A60FB1D1B78181CFFF784FBBD4603B090BDC04600000B400C000B4052F1FF0F10ED00E000010B4080B582B000AF78601C
:4024000039603B687968224A081C111C1A1C04F084F9031C002B01D1012334E03B6879681C4A081C111C1A1C04F077F9031C002B01D1032327E03B687968174A081C111C73
:402440001A1C04F06AF9031C002B01D102231AE03B687968114A081C111C1A1C04F05DF9031C002B01D104230DE03B6879680C4A081C111C1A1C04F050F9031C002B01D1FA
:40248000082300E00023181CBD4602B080BDC0462C6A0000306A0000386A00003C6A0000446A000080B584B000AFF860B960FB1D1A70FB1D1B78082B54D89A00334BD31864
:4024C0001B689F46BB68032B00DD0323F968304A081C111C1A1C04F00FF9BB68032B50DD03234EE0BB68072B00DD0723F968294A081C111C1A1C04F0FFF8BB68072B40DDDC
:4025000007233EE0BB68032B00DD0323F968224A081C111C1A1C04F0EFF8BB68032B30DD03232EE0BB68042B00DD0423F9681B4A081C111C1A1C04F0DFF8BB68042B20DD81
:4025400004231EE0BB68042B00DD0423F968144A081C111C1A1C04F0CFF8BB68042B10DD04230EE0BB68032B00DD0323F9680D4A081C111C1A1C04F0BFF8BB68032B00DD1F
:402580000323181CBD4604B080BDC046506A00002C6A0000306A0000386A00003C6A0000446A00004C6A000080B582B000AF78603960174B1A683B687968081C111C1A1CBB
:4025C00004F0ABF8031C002B01D100231CE0104B5A683B687968081C111C1A1C04F09DF8031C002B01D101230EE0094B9A683B687968081C111C1A1C04F08FF8031C002B04
:4026000001D1022300E00423181CBD4602B080BD8802002080B582B000AF786039601E4B1A683B687968081C111C1A1C04F075F8031C002B01D100232AE0174B5A683B68DE
:402640007968081C111C1A1C04F067F8031C002B01D101231CE0104B9A683B687968081C111C1A1C04F059F8031C002B01D102230EE0094BDA683B687968081C111C1A1CE6
:4026800004F04BF8031C002B01D1032300E00523181CBD4602B080BD9402002080B584B000AFF860B9607A60BB681B78032B13D1BB685B68FA68D118BB689A68BB685B6856
:4026C000D31A7A68081C111C1A1C04F026F8031C002B01D1002301E001235B42181CBD4604B080BD80B584B000AF786039603B681B017A68D3181B78012B06D03B681B0100
:402700007A68D3181B78022B11D13B681B017A68D3189B68FB603B6801333B603B681B017A68D3185A68FB689A42F4DB02E03B6801333B603B68181CBD4604B080BDC0464D
:4027400080B584B000AFF860B9607A603B60484B484A1A60484B962252001A60444B1A68464B101C191C102203F0C6FF404B1B681A1C0F323E4B1A603F4B1B680F3B1A1CA3
:402780003D4B1A603A4B1968BB68FA68081C111C1A1C03F0B1FF364B1A68BB68D218344B1A60354B1A68BB68D21A334B1A60304B1A68334B101C191C0B2203F09DFF2C4B41
:4027C0001B681A1C0A322A4B1A602B4B1B680A3B1A1C294B1A60264B19683B687A68081C111C1A1C03F088FF214B1A683B68D2181F4B1A60204B1A683B68D21A1E4B1A605D
:402800001B4B1A681F4B101C191C0B2203F074FF174B1B681A1C0A32154B1A60164B1B680A3B1A1C144B1A60114B1968FB69BA69081C111C1A1C03F05FFF0D4B1A68FB696F
:40284000D2180B4B1A600C4B1A68FB69D21A0A4B1A60074B1B68591C054A116022221A70054B1B685A1E044B1A60BD4604B080BD5C020020F403002060020020BC6A000089
:40288000CC6A0000D86A000080B584B000AF021CFB1D1A701D4B1A681D4B101C191C0B2203F02AFF194B1B681A1C0A32174B1A60184B1B680A3B1A1C164B1A60134B19687C
:4028C000144B1A68FB1D1B78081C111C1A1CFFF7E9FD031CFB600D4B1A68FB68D2180B4B1A600C4B1A68FB68D21A0A4B1A60074B1B68591C054A116022221A70054B1B68D6
:402900005A1E044B1A60BD4604B080BD5C020020E46A00006002002090B58BB002AF78603960BB4B00221A60B94B1A68B94B1A60B84B1A68B84B1A60B74B1A68B74B1A60CA
:40294000B74B00221A70B74B181C02F02FFB3A68B4487968B44B3C24009402F091F9031CFB60FB68002B01DC0123C8E1AE4B1B78012B01D00123C2E10123FB610023BB61A8
:40298000A0E1A94BFA691201D35C032B01D00123B5E1FB691A01A44BD2187968A34B081C111C1A1CFFF77AFE031C002B00D0A7E0FB695A1C9C4B1201D35C012B01D0012363
:4029C0009DE1FB6902337B6100233B6173E0964B7A691201D35C032B01D001238FE17B691A01914BD2187968914B081C111C1A1CFFF754FE031C002B20D17B6901338A4AC1
:402A00001B01D3185B687A68D1187B690133864A1B01D31808331A687B69013382481B01C3185B68D31A834A081C111C1A1C03F074FE031C002B30D0022360E17B691A0164
:402A4000794BD21879687C4B081C111C1A1CFFF725FE031C002B20D17B690133724A1B01D3185B687A68D1187B6901336E4A1B01D31808331A687B6901336B481B01C31866
:402A80005B68D31A6D4A081C111C1A1C03F045FE031C002B01D0022331E17B6901337B61614A7B69101C191CFFF71CFE031C7B613B6901333B61FB6901335B4A1B01D318F9
:402AC00008335A683B699A4281DCFB690133564A1B01D3185B687A68D2184D4B1A60FB690133514A1B01D31808331A68FB6901334D491B01CB185B68D21A514B1A60D3E080
:402B0000FB691A01484BD21879684E4B081C111C1A1CFFF7C3FD031C002B23D1FB695A1C414B1201D35C012B01D00123E7E0FB6901333D4A1B01D3185B687A68D218354BDF
:402B40001A60FB690133384A1B01D31808331A68FB69013334491B01CB185B68D21A3A4B1A60A1E0FB691A012F4BD2187968374B081C111C1A1CFFF791FD031C002B1ED130
:402B8000FB690133284A1B01D3185B687A68D218FB69013324491B01CB1808331968FB69013321481B01C3185B68CB1A101C191CFFF722FC031C1A1C194B1A7074E0FB69A5
:402BC0001A01194BD2187968214B081C111C1A1CFFF764FD031C002B3ED1FB690133124A1B01D3185B687A68D2180C4B1A60FB6901330D4A1B01D31808331A68FB69013342
:402C000009491B01CB185B68D21A124B1A604BE00803002000030020F8020020F0020020EC0200201003002020050020F06A0000FC6A0000086B00000C6B0000146B000069
:402C40000C030020186B000004030020206B0000286B0000F4020020FB691A012A4BD21879682A4B081C111C1A1CFFF717FD031C002B19D1FB690133234A1B01D3185B687F
:402C80007A68D218224B1A60FB6901331E4A1B01D31808331A68FB6901331B491B01CB185B68D21A1B4B1A60FB690133FB61164AFB69101C191CFFF715FD031CFB61BB6953
:402CC0000133BB61104BDA68BB699A4200DD58E6114B1B68002B0FD0104B1B68002B0BD00F4B1B68002B07D00E4B1B78002B03D0074B1B68002B01D1032300E00023181C07
:402D0000BD4609B090BDC04620050020306B0000F8020020FC0200200003002008030020F0020020EC020020B0B588B000AFB9607A603B603B1C0F33021C1A703B1C0F334A
:402D40001B78012B01D00023FFE0C0463B681B78012B00D0E4E00123FB613B1C1B3304221A7000237B6141E0FB691B013A68D3181B78032B00D0D3E0FB691B013A68D21873
:402D8000B968744B081C111C1A1CFFF787FC031C002B1DD1FB6901331B013A68D3185B68BA68D218FB6901331B013968CB189968FB6901331B013868C3185B68CB1A3C1C83
:402DC0001B34101C191CFFF7EFFB031C237012E0FB690133FB613A68FB69101C191CFFF781FC031CFB617B6901337B613B68DA687B699A42B8DC3B1C1B331B78042B00D1F1
:402E00008EE000233B613B1C1B331B78012B27D0022B48D0002B00D082E04F4B1A684F4B101C191C2B2203F067FC4B4B1B681A1C2A32494B1A604A4B1B682A3B1A1C484BAF
:402E40001A60454B1D68464B1C68FDF777FA031C281C211C1A1C01F0B9FB031C3B6144E03D4B1A683F4B101C191C2C2203F044FC394B1B681A1C2B32374B1A60384B1B68DD
:402E80002B3B1A1C364B1A60334B1D68344B1C68FDF77AFA031C281C211C1A1C01F096FB031C3B6121E02C4B1A682F4B101C191C242203F021FC284B1B681A1C2332264BDD
:402EC0001A60274B1B68233B1A1C254B1A60224B1D68234B1C68FDF71FFA031C281C211C1A1C01F0DDFB031C3B61C0461A4B1A683B69D218184B1A60194B1A683B69D21ACC
:402F0000174B1A60144B1B68591C134A11607D221A70134B1B685A1E114B1A60032314E00D4B1A68114B101C191C102203F0E4FB094B1B681A1C0F32074B1A60084B1B6893
:402F40000F3B1A1C064B1A600423181CBD4608B0B0BDC046386B00005C0200203C6B000060020020686B0000946B0000B86B000090B58DB000AFB9607A603B603B1C0F33E6
:402F8000021C1A703B1C0F331B78012B01D000232EE13B681B78012B00D014E10123FB623B1C2B3304221A7000237B6200233B620023FB610023BB6100237B618CE0FB6AB3
:402FC0001B013A68D3181B78032B00D0FBE0FB6A1B013A68D218B968874B081C111C1A1CFFF75CFB031C002B1DD1FB6A01331B013A68D3185B68BA68D218FB6A01331B01EA
:403000003968CB189968FB6A01331B013868C3185B68CB1A3C1C2B34101C191CFFF7C4FA031C23704AE0FB6A1B013A68D218B968724B081C111C1A1CFFF730FB031C002BAE
:4030400017D1FB6A01331B013A68D3185B68BA68D318FB61FB6A01331B013A68D3189A68FB6A01331B013968CB185B68D31ABB6124E0FB6A1B013A68D218B968604B081CB0
:40308000111C1A1CFFF70AFB031C002B16D1FB6A01331B013A68D3185B68BA68D3187B62FB6A01331B013A68D3189A68FB6A01331B013968CB185B68D31A3B62FB6A01332F
:4030C000FB623A68FB6A101C191CFFF70BFB031CFB627B6901337B613B68DA687B699A4200DD6CE77B6A002B00D16CE0FB69002B69D03B1C2B331B78042B64D03B1C2B3375
:403100001B78012B1BD0022B30D0002B00D05AE0BB69F9693B4A081C111C1A1C03F0FDFA031C002B0AD17A6A3B6A101C191C01F0CBFB031C181CFDF70BF92DE02CE0BB69B9
:40314000F969304A081C111C1A1C03F0E6FA031C002B0AD17A6A3B6A101C191C01F0B4FB031C181CFDF716F916E015E0BB69F969254A081C111C1A1C03F0CFFA031C002BA7
:403180000AD17A6A3B6A101C191C01F0CFFB031C181CFDF7B3F8FFE7C0461C4B1A681C4B101C191C102203F0A7FA184B1B681A1C0F32164B1A60174B1B680F3B1A1C154B3D
:4031C0001A60022314E0114B1A68114B101C191C102203F091FA0D4B1B681A1C0F320B4B1A600C4B1B680F3B1A1C0A4B1A600423181CBD460DB090BD386B0000C86B000068
:40320000CC6B0000D06B0000D46B00005C020020B86B00006002002080B584B000AFB9607A603B603B1C0F33021C1A703B1C0F331B78002B2AD1184B1A68184B101C191CD8
:40324000132203F059FA144B1B681A1C1232124B1A60134B1B68123B1A1C114B1A60FDF7A1F80D4B1A680F4B101C191C032203F043FA094B1B689A1C074B1A60084B1B68C0
:40328000023B1A1C064B1A60082300E00023181CBD4604B080BDC0465C020020D86B000060020020EC6B000080B584B000AFB9607A603B603B1C0F33021C1A703B1C0F335A
:4032C0001B78012B2AD1184B1A68184B101C191C132203F011FA144B1B681A1C1232124B1A60134B1B68123B1A1C114B1A60FDF759F80D4B1A680F4B101C191C032203F0D9
:40330000FBF9094B1B689A1C074B1A60084B1B68023B1A1C064B1A60032300E00023181CBD4604B080BDC0465C020020D86B000060020020EC6B000090B587B000AFB960F7
:403340007A603B603B1C0F33021C1A703B1C0F331B78012B41D13C1C1734BA687B68101C191CFFF757F9031C23703B1C17331B78052B16D1C0461B4B1A681B4B101C191C2C
:40338000102203F0B9F9174B1B681A1C0F32154B1A60164B1B680F3B1A1C144B1A6004231CE03B1C17331B78181CFDF7C5F80D4B1A680D4B101C191C102203F09DF9094BE5
:4033C0001B681A1C0F32074B1A60084B1B680F3B1A1C064B1A60022300E00023181CBD4607B090BD5C020020B86B00006002002080B582B000AF7860044A98235B00D15CE1
:4034000004200143D154BD4602B080BDE008002080B500AF074A98235B00D15C04208143D154044A98235B00D15C02208143D154BD4680BDE008002080B582B000AF7860AE
:403440003960074A96235B003968D150044A98235B00D15C01200143D154BD4602B080BDE008002080B582B000AF021CFB1D1A70FB1D1B78002B02D0FEF740F801E0FEF7F6
:4034800055F8BD4602B080BD80B500AF034A9A235B000221D154BD4680BDC046E008002080B500AF034A9A235B000321D154BD4680BDC046E008002080B500AF034A9A2320
:4034C0005B000421D154BD4680BDC046E008002080B500AF174AA2235B00101C00211A1C03F013F9134A9A235B000021D154124B181C00F015FF114B181C00F01DFF1049AD
:403500000C4A96235B00081C111C1A1C00F020FF0B49084A96235B00081C111C1A1C00F031FF084B181C00F0EFFE00F0AFFEBD4680BDC046E0080020F13300001134000072
:40354000393400006534000080B582B000AF78603960124A98235B00D35C1B07DB0FDBB2002B0BD00D4A98235B00D15C08208143D1540B4B181C00F0ABFF0CE0FDF7E2FEEF
:40358000031C1A1C074B1A60044A98235B00D15C02200143D154BD4602B080BDE0080020A13400001C030020B0B584B002AFCB4A98235B00D35CDB07DB0FDBB2002B00D1C7
:4035C00031E1C64A98235B00D15C02208143D154C24A96235B00D358C04A101C191CFFF79BF9031C002B00D016E1BD4B1B78042B15D1BC4B1B68591CBA4A1160022B00DDDC
:403600000AE1B94B1B6896225200D31A1A1CB749B74B081C111C1A1C00F0CEFEFCE0B14B00221A60B34B00221A60B34B1868B34B1968B34B1A68B34B1C68B34B1D68B34B18
:403640001B6800950193231CFFF77AF8B04B181C01F0ACFCAF4B1968AF4B1B681A1CAC48AE4B3C24009401F00BFB031C3B603B68002B00DCD0E0FB1D00221A70A24B1968E3
:40368000A24B1B68A64A081C111C1A1C03F045F8031C002B0ED1924B18789E4B19689E4B1A68FC1D9D4B3D680095FFF761FC031C23706EE0944B1968944B1B68994A081C31
:4036C000111C1A1C03F029F8031C002B0ED1844B1878904B1968904B1A68FC1D8F4B3D680095FFF721FB031C237052E0864B1968864B1B688C4A081C111C1A1C03F00DF8F4
:40370000031C002B0ED1764B1878824B1968824B1A68FC1D814B3D680095FFF77DFD031C237036E0784B1968784B1B687F4A081C111C1A1C02F0F1FF031C002B0ED1684B83
:403740001878744B1968744B1A68FC1D734B3D680095FFF7A9FD031C23701AE06A4B19686A4B1B68724A081C111C1A1C02F0D5FF031C002B0DD15A4B1878664B1968664B28
:403780001A68FC1D654B3D680095FFF7D5FD031C2370FB1D1B78002B31D0FB1D1B78181CFFF772F8634B1B68591C624A11607D221A704D4B1B685A1E4B4B1A605D4B1B683A
:4037C00000221A70FB1D1B78022B03D0FB1D1B78042B06D1414A98235B00D15C08200143D154414B1B6896225200D31A1A1C3F493F4B081C111C1A1C00F0DEFD0CE0374A55
:4038000098235B00D35C5B07DB0FDBB2002B03D1494B181C00F05CFE304A98235B00D15C01208143D1542D4A98235B00D35C9B07DB0FDBB2002B3BD02E4B1B68022B14DD6D
:40384000264A98235B00D15C02208143D154234A98235B00D35C5B07DB0FDBB2002B27D1354B181C00F034FE22E0FDF76BFD031C1A1C324B1B68D21A314B9A4218D9174ABD
:4038800098235B00D15C02208143D154194B1B685A1C184B1A60144B1B6896225200D31A1A1C1249124B081C111C1A1C00F084FD0A4A9A235B00D35C022B45D0032B00D1E5
:4038C00024E1012B00D026E1044AA0235B00D2581C4B101C191C00F0B7FD1CE1E0080020EC0200202003002060020020F403002049350000240300200003002004030020C0
:40390000080300200C030020F0020020F402002010030020F8020020FC02002020050020F06B0000F46B0000F86B0000006C0000086C00005C020020A13400001C030020C6
:40394000B80B000089340000774B00221A60774B00221A60764A9C235B00D058744A9E235B00D158734A744B00900191101C1B211A1C1B23FEF7E4FEBB1D00221A706C4A7B
:403980009C235B00D1586A4A9E235B00D3586B4A081C111C1A1C02F0C0FE031C002B0BD1BC1D002300930020002100220023FFF7DFFA031C237072E05D4A9C235B00D158E5
:4039C0005B4A9E235B00D3585D4A081C111C1A1C02F0A3FE031C002B0BD1BC1D002300930020002100220023FFF79EF9031C237055E04F4A9C235B00D1584D4A9E235B00DC
:403A0000D358504A081C111C1A1C02F086FE031C002B0BD1BC1D002300930020002100220023FFF7F9FB031C237038E0404A9C235B00D1583E4A9E235B00D358424A081C89
:403A4000111C1A1C02F069FE031C002B0BD1BC1D002300930020002100220023FFF7DCFB031C23701BE0324A9C235B00D158304A9E235B00D358354A081C111C1A1C02F05D
:403A80004CFE031C002B0AD1BC1D002300930020002100220023FFF74FFC031C2370BB1D1B78002B2DD0BB1D1B78181CFEF7ECFE274B1B68591C264A11607D221A70254B9A
:403AC0001B685A1E234B1A60214B1B6800221A70BB1D1B78082B06D1154A98235B00D15C08200143D1541B4B1B6896225200D31A1A1C1949194B081C111C1A1C00F05CFCF5
:403B000009E0174B181C00F0E3FC04E0154B181C00F01EFDC046064A9A235B000021D154BD4602B0B0BDC0462003002024030020E008002064020020106C0000F06B0000E9
:403B4000F46B0000F86B0000006C0000086C00005C02002060020020F403002049350000A1340000B934000080B584B000AF021CFB1D1A700E4B1B68DAB23B1C0F33402112
:403B80008A431A70FB1D1B789B01DAB240231340D9B23B1C0F333A1C0F3212780A431A70034B3A1C0F3212781A60BD4604B080BD0001044080B500AF044B1A68402313407C
:403BC0009B09DBB2181CBD4680BDC0460401044080B582B000AF78607A6880235B00134003D0244B00221A7040E0224B1B78002B1DD0012B3AD1204B5A681F4B9B689A42DD
:403C000008D11E4B5B6A002B10D01C4B5B6A9A2098472BE0184B1968174B5B68581C164A5060CB187A68D2B21A701FE01EE0114B01221A707B68DBB2112B0CD10F4BDA6817
:403C40000D4B19680C4B5B68081C191C90470A4B00225A6009E0094B5B6A002B04D0074B5B6AA8209847FFE7C046C046BD4602B080BDC046A40200206003002028030020B3
:403C800080B582B000AF78607A6880235B00134003D02B4B00221A704FE0294B1B78002B1DD0012B49D1274B5A68264B9B689A4208D1254B5B6A002B10D0234B5B6ABC20AE
:403CC00098473AE01F4B19681E4B5B68581C1D4A5060CB187A68D2B21A702EE02DE0184B01221A707B68DBB2112B02D0122B0DD018E0154B9A68134B1968124B5B68081C16
:403D0000191C90470F4B00225A6015E00F4B02221A700D4B5B68002B03D00B4B5B6898470AE009E0084B5B6A002B04D0064B5B6AD0209847FFE7C046C046BD4602B080BD80
:403D4000A502002054030020280300207803002090B583B000AFC44B1A680423134000D104E1C24B1B78042B00D1DBE002DC022B07D0EBE0052B00D18BE0062B00D1DEE003
:403D8000E4E0BB4B1B687B607A68AC235B009A4203D1B84B01221A60E5E0B64B1B68012B07D17B68DAB2B44B1A70B24B02221A60D9E0B04B1B68022B6AD1B04B7A681A60A9
:403DC000AC4B00221A6001F057F9AB4B1B78042B2DD0102B37D0012B00D059E072B6A84BA74A126801210A431A60A54BA44A126802210A431A60A34BA24A126804218A43CC
:403E00001A60A14B9D4A1268802149000A431A609D4C01F003FA031C002B01D1032300E002232360984B58221A6062B630E08F4B05221A70954B1B69002B03D0934B1B691B
:403E4000984725E024E0894B03221A7072B68C4B8B4A126801210A431A60894B884A126802210A431A60874B864A126804218A431A60854B814A1268802149000A431A6048
:403E8000814B10221A60804B58221A6062B6C04669E0774B1B687B607A68AC235B009A4203D1744B01221A605DE0724B1B68012B07D17B68DAB2704B1A706E4B02221A60A0
:403EC00051E06C4B1B68022B25D16C4B7A681A60684B00221A6001F0B1FA01F0CDF8664B1B78102B0BD1614B06221A70674BDB69002B03D0654BDB6998470CE00BE0634B7B
:403F00005B6A002B06D0614B5B6ACE225200101C9847FFE7C04626E0554B1B68181CFFF7AFFE00E0C0465A4B1A680F231340F3D119E04F4B1B68181CFFF74AFE00E0C0464D
:403F4000534B1A680F231340F3D10CE04F4B5B6A002B05D04D4B5B6AAE22FF32101C984701F08AF8C0464B4B04221A604A4B1A6880239B00134000D16FE0414B404A12681D
:403F800001218A431A603E4B3D4A126802218A431A6001F071F83B4B3A4A126804210A431A60324B1B78072B46D89A003B4BD3181B689F462D4B02221A70314B304A126871
:403FC00008210A431A60314B5B69002B03D02F4B5B6998473DE03CE0642001F049FA01F001FA36E0214B04221A70284B1B68002B06D0264B1A68214B1B68181C904728E07B
:4040000027E01A4B05221A70204B1B6A002B03D01E4B1B6A98471CE01BE01C4B9B69002B09D01A4B9A691E4B19681D4B9B68081C191C90470DE00CE0144B5B6A002B06D057
:40404000124B5B6AF5225200101C984701E000E0C046144B802292001A600F4B1A680223134055D04BE0C046CC0F0640780300204003064080030020840300207C030020FE
:4040800000000440C80F0640400206402803002008030640C00F06408C0F06402C6C00006C030020800F06401B4B5A681A4B9B689A4219D1C046194B1A680F231340082298
:4040C000D31A012BF7D9164B164A1268802149000A431A60124B11221A60134B124A126802218A431A6010E00D4B0B4A10680A4A5268541C08494C60821812781A60074BC3
:404100001A680F231340082BCED1084B02221A60BD4603B090BDC0466C03002008020640400206407C030020880F0640800F064080B500AF01F080F8031C002B4CD0274BCF
:404140001B68DA080123134023D001F0B1F900F0A9FF234B224A126801218A431A60204B1F4A126802210A431A6000F085FF1D4B1C4A126804218A431A601B4B00221A700E
:404180001A4B9B6A002B27D0184B9B6A0020984722E0134B124A126801218A431A60104B0F4A126802218A431A6000F065FF0D4B0C4A126804210A431A6000F089FF01F004
:4041C0009DF9094B02221A70084B9B6A002B03D0064B9B6A01209847BD4680BD0400044000000440C80F0640780300202803002080B500AF01F022F91E4B5B6A002B05D08E
:404200001C4B5B6A8E229200101C98471A4B1B78052B21D172B6194B184A126801210A431A60164B154A126802210A431A60144B134A126804218A431A60124B124A1268A1
:40424000802149000A431A600E4B10221A600D4B58221A6062B60AE0064B5B6A002B05D0044B5B6A93229200101C9847C046BD4680BDC04628030020780300200000044048
:40428000C80F0640400206407C03002080B500AF00F0B4FE174B181C00F0D6FEFF2000F0A3FF582000F086FF134B181C00F0DCFF124B181C01F032F801F0AEF801F0BEF8F5
:4042C00001F0F6F80E4B0E4A126801218A431A600B4B0B4A126802210A431A6000F0CCFE084B084A126804218A431A6000F0DAFEBD4680BD513D000031410000F1410000BD
:4043000000000440C80F064080B582B000AF7860024B7A689A62BD4602B080BD2803002080B582B000AF7860024B7A681A60BD4602B080BD2803002080B582B000AF786004
:40434000024B7A685A60BD4602B080BD2803002080B584B000AFF860B9607A60074BFA689A60074BBA681A60054B7A689A60044B00225A60BD4604B080BDC046280300207C
:404380005403002080B584B000AFF860B9607A60074BFA68DA60074BBA681A60054B7A689A60044B00225A60BD4604B080BDC046280300206003002080B584B000AFF860B8
:4043C000B9607A60194B1B78042B01D0062B28D1174B174A126801210A431A60144B144A126802210A431A60124B124A126804218A431A60104BFA681A600F4BBA689A6016
:404400000D4B00225A600D4B7A689A610C4B02221A600C4B0B4A126802210A431A60002300E00223181CBD4604B080BD7803002000000440C80F06406C03002028030020E8
:40444000800F0640880F064080B582B000AF78603960194B1B78052B28D1184B3A68DA61174B7A681A6072B6164B164A126801210A431A60134B134A126802210A431A607A
:40448000114B114A126804218A431A600F4B0C4A1268802149000A431A600C4B10221A600A4B58221A6062B6002300E00223181CBD4602B080BDC0467803002028030020E6
:4044C0007C03002000000440C80F06404002064080B582B000AF7860174B1B78062B25D1164B7A681A62144B07221A7072B6144B134A126801210A431A60114B104A1268E2
:4045000002210A431A600F4B0E4A126804218A431A600D4B0D4A1268802149000A431A60094B12221A6062B6002300E00223181CBD4602B080BDC0467803002028030020CB
:4045400000000440C80F0640400206407C03002080B582B000AF7860174B1B78052B25D1164B7A685A61144B01221A7072B6144B134A126801210A431A60114B104A126829
:4045800002210A431A600F4B0E4A126804218A431A600D4B0222FF321A600B4B05221A60094B58221A6062B6002300E00223181CBD4602B080BDC0467803002028030020C1
:4045C00000000440C80F06404002064090B589B000AFF860B9607A600023FB617B68DB0FDBB27B617B69002B0AD0FB685A1CFA602D221A70FB690133FB617B685B427B6061
:40460000FB68BB6116E0BC69631CBB617B68181C0A2101F033F80B1CDBB23033DBB22370FB690133FB617B68181C0A2100F0D0FF031C7B607B68092B03DDFA69BB689A4268
:40464000E1DBBC69631CBB617B68181C0A2101F015F80B1CDBB23033DBB22370FB690133FB6112E0BB69013BBB613B1C1333BA6912781A70FB681A78BB691A70FB685A1C95
:40468000FA603A1C133212781A70BA69FB68D31A012BE7DCFB69181CBD4609B090BDC04680B586B000AFF860B9607A6000237B6102E07B6901337B617B685A1C7A601B78E8
:4046C000002BF6D17B69DB437A68D3187B607B699A1CBB689A4201DD002313E0FB685A1CFA6022221A707B69F9687A68081C111C1A1C02F001F87B69FA68D31822221A70F8
:404700007B690233181CBD4606B080BD0000000090B589B000AFF860B9603A607B603868796801F0FFFE031CFB61386879685F4B5D4A00F0C5FF031C002B0BD0386879680D
:404740005B4A5C4B00F0D0FF031C002B02D001235B42FB61F968BA68FB69081C111C1A1CFFF734FF031CBB61386879684F4B4E4A00F0A6FF031C002B0ED0386879684C4A9C
:404780004C4B00F0B1FF031C002B05D0FB68013330221A700023FB61BB69FA68D3187B61F86901F0F3FE031C0C1C386879681A1C231C01F083FB031C0C1C3B607C60386817
:4047C00079683A4B384A00F07BFF031C002B06D03B683B607B688022120653407B6038687968354A354B00F07FFF031C002B53D0BA68BB69D31A012B01DCBB694DE07B6932
:404800005A1C7A612E221A70BB690133BB61386879682B4A2B4B01F0C1F8031C0C1C3B607C600023FB612FE07C69631C7B613868796801F077FE031CDBB23033DBB2237021
:40484000BB690133BB613868796801F06BFE031C181C01F09BFE031C0C1C386879681A1C231C01F02BFB031C0C1C3B607C60FB690133FB6138687968114A124B01F08EF856
:40488000031C0C1C3B607C60FB69052B04DCBA68BB69D31A002BC7DCBB69181CBD4609B090BDC046C046C0460000000000000000000000000000F0BF8DEDB5A0F7C6B03E29
:4048C000000000000000244080B584B000AF786039600023FB607B68BB607B681B782D2B03D1BB680133BB600EE00DE0FA68131C9B009B185B001A1CBB681B78303BD318E4
:40490000FB60BB680133BB60BA687B68D21A3B689A42EBDB7B681B782D2B02D1FB685B42FB60FB68181CBD4604B080BD80B582B000AF786039603B68142B00DD1423064921
:404940007A68081C111C1A1C01F0D6FE024B181CBD4602B080BDC0468803002080B586B000AFF860B9607A60FB685A687B689A4201D3002314E0FB685B68591CFA68516003
:404980001B01BA68D3187B617B69012252429A607B699A687B695A607B690022DA607B69181CBD4606B080BD80B584B000AFF8607A603B603B1C0B330A1C1A70FB683A1CA8
:4049C0000B3212781A70FB687A685A60FB683A689A60FB680022DA60BD4604B080BDC04680B586B000AFF860B9607A603B60FB681B687B6130E0FB681B68BA68D3181B7857
:404A0000202B36D006DC092B0EDB0A2B31DD0D2B2FD009E03A2B2CD002DC2C2B29D003E05D2B26D07D2B24D0FB681B68BA68D3181B781F2B06D9FB681B68BA68D3181B7802
:404A40007E2B04D97A69FB681A60FE233CE0FB681B685A1CFB681A60FB681A687B689A4208D2FB681B68BA68D3181B78002BC2D100E0C0463B68002B06D1FB681B685A1ECF
:404A8000FB681A6000231FE0F9683A683B6A081C111C1A1CFFF762FF031C3B613B69002B04D17A69FB681A60FF230DE0FB681B6839697A69081C0021FFF776FFFB681B6842
:404AC0005A1EFB681A6000235BB2181CBD4606B080BDC04680B588B000AFF860B9607A603B60FB681B68BB61FB681B685A1CFB681A60ACE0FB681B68BA68D2183B1C1733A5
:404B000012781A703B1C17331B78222B21D13B68002B01D10023ABE0F9683A68BB6A081C111C1A1CFFF71AFF031C3B613B69002B04D1BA69FB681A60FF2399E0BB695A1C4E
:404B4000FB681B683969081C0321FFF72DFF00238EE03B1C17331B785C2B00D072E0FB681B685A1C7B689A4200D36BE0FB681B685A1CFB681A60FB681B68BA68D3181B78DD
:404B8000223B532B58D89A003C4BD3181B689F46FB681B685A1CFB681A600023FB6136E0FB681B68BA68D3181B782F2B06D9FB681B68BA68D3181B78392B20D9FB681B6820
:404BC000BA68D3181B78402B06D9FB681B68BA68D3181B78462B12D9FB681B68BA68D3181B78602B06D9FB681B68BA68D3181B78662B04D9BA69FB681A60FE2338E0FB6869
:404C00001B685A1CFB681A60FB690133FB61FB69032B0BDCFB681A687B689A4206D2FB681B68BA68D3181B78002BB9D1FB681B685A1EFB681A6005E0BA69FB681A60FE2339
:404C400016E0C046FB681B685A1CFB681A60FB681A687B689A4207D2FB681B68BA68D3181B78002B00D045E7BA69FB681A60FD235BB2181CBD4608B080BDC0464C6C0000BE
:404C8000B0B58CB002AFF860B9607A603B6000233B625BE1FB681B68BA68D2183B1C1F3312781A703B1C1F331B782C2B00D1DFE00FDC0D2B00D143E104DC093B012B00D9AD
:404CC00015E13DE1202B00D13AE1222B00D19FE00DE15D2B43D005DC3A2B00D1C1E05B2B05D004E17B2B02D07D2B38D0FFE03B6A01333B623B68002B00D122E1F9683A6829
:404D0000BB6B081C111C1A1CFFF728FE031CBB61BB69002B01D1FF2342E1FB689B68013307D0FB689B681B013A68D318DA680132DA603B1C1F331B787B2B01D1012300E022
:404D40000223BA691370FB681B681A1CBB695A60FB685B68013B1A1CFB689A60F1E03B68002B00D1EDE03B1C1F331B787D2B01D1012300E002233A1C17321370FB685B6815
:404D8000013B7B6223E07B6A1B013A68D318BB61BB695B68013317D0BB699B68013313D1BB691B783A1C173212789A4201D0FE23F6E0FB68012252429A60FB681B6801333A
:404DC0001A1CBB699A6005E07B6A013B7B627B6A002BD8DA7B6A013301D1FE23E0E013E07B6A1B013A68D318BB61BB695B68013307D0BB699B68013303D1FB687A6A9A60EF
:404E000005E07B6A013B7B627B6A002BE8DA98E03C1C1634F868B9687A683B68BD6B0095FFF758FE031C23703B1C16331B787F2B03D93B1C16331B78B2E03B6A01333B62EE
:404E4000FB689B6801330BD03B68002B08D0FB689B681B013A68D318DA680132DA6070E06FE0FB685B68013B1A1CFB689A6068E03B68002B3AD0FB689B681B013A68D31896
:404E80001B78022B32D0FB689B681B013A68D3181B78012B2AD0FB685B68013B7B6222E07B6A1B013A68D3181B78022B06D07B6A1B013A68D3181B78012B11D17B6A1B01D3
:404EC0003A68D3185B6801330AD07B6A1B013A68D3189B68013303D1FB687A6A9A6005E07B6A013B7B627B6A002BD9DA29E03C1C1634F868B9687A683B68BD6B0095FFF770
:404F00006FFD031C23703B1C16331B787F2B03D93B1C16331B7843E03B6A01333B62FB689B6801330BD03B68002B08D0FB689B681B013A68D318DA680132DA6001E000E034
:404F4000C046FB681B685A1CFB681A60FB681A687B689A4207D2FB681B68BA68D3181B78002B00D096E6FB685B68013B7B6212E07B6A1B013A68D3185B68013308D07B6A05
:404F80001B013A68D3189B68013301D1FD2307E07B6A013B7B627B6A002BE9DA3B6ADBB25BB2181CBD460AB0B0BDC04680B582B000AF78607B6800221A607B6800225A6098
:404FC0007B68012252429A60BD4602B080BDC04680B500AF00F088F8BD4680BD80B500AF054B054A1268802109060A431A6000F037F8BD4680BDC0460000064080B500AF8E
:40500000064B1B78002B04D1FFF7E2FF034B01221A70FFF7E3FFBD4680BDC0469C03002080B500AF0A20FDF73DF9064B054A1268520052081A600A20FDF74AF900F018F804
:40504000BD4680BD0000064080B582B000AF7860024B7A681A60BD4602B080BDA003002080B500AF0A20FDF707F9BD4680BDC04680B500AFBD4680BD80B500AF074B074A6B
:405080001268802149020A431A60044B034A1168034A0A401A60BD4680BDC04604030640FFFFFEFF80B500AF074B1B68DB0FDBB21A1C064B1A70054B1B78002B01D0FFF7F9
:4050C000AFFFBD4680BDC04600000640A403002080B500AF034B1B78002B01D0FFF77EFFBD4680BDA403002080B500AF1D4B1E4A1A601E4B00221A601D4B1E4A1A601E4B8E
:405100001E4A1A601E4B07221A601E4B1E4A1A601E4B01221A601E4B184A1A601D4B00221A600A20FDF7BEF80A200321FDF750F8194B0A20191CFDF725F8184B00221A60B6
:40514000174B00221A60174B00221A60164B00221A60164B04221A60154B802292001A60BD4680BD000006400B0001024000064048000640010400000003064008000080A9
:4051800004030640100306400100FF0044000640000206400402064019550000880E0640C80E0640480F0640080F0640C80F0640880F064080B584B000AF7860094B1B680A
:4051C000FB60FB68FF229343FB607A68FF231340FA681343FB60034BFA681A60BD4604B080BDC0461003064080B584B000AF7860084B1B68FB60FA68074B1340FB607B6852
:405200001B04FA681343FB60024BFA681A60BD4604B080BD10030640FFFF00FF80B500AF044B1A6808231340DB08DBB2181CBD4680BDC0460000044080B582B000AF094BFE
:405240001B68D9B2FB1D08220A401A70054BFA1D12781A60FB1D1B78DB08DBB2181CBD4602B080BD1000044080B582B000AF786000F04AF87B68181C00F008F8032000F0D0
:4052800011F800F037F8BD4602B080BD80B582B000AF7860024B7A681A64BD4602B080BD0000002090B585B000AF021CFB1D1A700623FB603C1C0B34FCF710FC031C237072
:4052C0000B4B0B4A1268C021101C8843011CFA1D1078FA68041C9440221C0A431A603B1C0B331B78181CFCF7FDFBBD4605B090BD00E400E080B500AF024B01221A60BD46B9
:4053000080BDC04600E100E080B500AF024B01221A60BD4680BDC04680E100E080B582B000AF786000F04AF87B68181C00F008F8032000F011F800F037F8BD4602B080BDC0
:4053400080B582B000AF7860024B7A685A64BD4602B080BD0000002090B585B000AF021CFB1D1A700E23FB603C1C0B34FCF7B6FB031C23700A4B0A4A11680A4A1140FA1D00
:405380001078FA68041C9440221C0A431A603B1C0B331B78181CFCF7A5FBBD4605B090BD00E400E0FF3FFFFF80B500AF024B02221A60BD4680BDC04600E100E080B500AF5C
:4053C000024B02221A60BD4680BDC04680E100E080B500AF024B64221A70BD4680BDC04681000F4090B583B000AFFC1DFCF776FB031C2370074B074A1278D2B220210A434F
:40540000D2B21A70FB1D1B78181CFCF76BFBBD4603B090BD91000F4080B500AF064B1B78002B04D1FFF7D4FF034B01221A70FFF7D9FFBD4680BDC046A803002090B583B060
:4054400000AFFC1DFCF74AFB031C2370074B074A1278D2B220218A43D2B21A70FB1D1B78181CFCF73FFBBD4603B090BD91000F4080B582B000AF021CFB1D1A70044BFA1D82
:4054800011787F220A40D2B21A70BD4602B080BD71000F4080B500AF034B1B78DAB2034B5A70BD4680BDC04671000F40240A002080B500AF094B1B78DBB21A1C20231340D7
:4054C00005D0074B01221A70FFF7B8FF02E0044B00221A70FFF7DEFFBD4680BD91000F40240A002080B500AF024B034A52781A70BD4680BD71000F40240A002080B500AF09
:40550000FFF7F0FF034B1B78002B01D0FFF76AFFBD4680BD240A002080B500AF044B1B68002B02D0024B1B689847BD4680BDC046A0030020002934D00123002210B4884250
:405540002CD301242407A14204D2814202D209011B01F8E7E400A14204D2814202D249005B00F8E7884201D3401A1A434C08A04202D3001B5C0822438C08A04202D3001B26
:405580009C082243CC08A04202D3001BDC082243002803D01B0901D00909E3E7101C10BC7047002801D00020C04307B4024802A14018029003BDC046D90000000029F0D042
:4055C00003B5FFF7B9FF0EBC4243891A1847C046002941D010B4041C4C40A44601230022002900D54942002800D5404288422CD301242407A14204D2814202D209011B017D
:40560000F8E7E400A14204D2814202D249005B00F8E7884201D3401A1A434C08A04202D3001B5C0822438C08A04202D3001B9C082243CC08A04202D3001BDC08224300280A
:4056400003D01B0901D00909E3E7101C6446002C00D5404210BC7047002806D003DB0020C043400801E08020000607B4024802A14018029003BDC046190000000029EBD087
:4056800003B5FFF7A7FF0EBC4243891A1847C0467047C0468446101C62468C46191C634600E0C0461FB500F0FBF8002801D40021C8421FBD10B500F02BF84042013010BD3B
:4056C00010B500F0EDF8002801DB002010BD012010BDC04610B500F0E3F8002801DD002010BD012010BDC04610B500F05BF8002801DC002010BD012010BDC04610B500F011
:4057000051F8002801DA002010BD012010BDC046F0B55F4656464D464446F0B40D1C041C8046E80F814618030F03000B3F0B83B084461B48009749005E00DF0F490D92468C
:40574000760DBB4681420CD01548864210D00120B14215D003B03CBC90469946A246AB46F0BD009F01202743F4D10D488642EED1604602430120002AECD10120B142E9D196
:40578000009B6345E6D1D045E4D1D94506D00029E0D11C43201C441EA041DBE70020D9E7FF070000F0B55F4656464D464446F0B4CD0FDE0FAC461D032D0BB146374E0F0389
:4057C0004C00AB465D0080463F0B640D92466D0DB44232D0314EB54235D0002C0ED1384341424141081C002D0BD0002919D1CC452DD0654668420123184318E0002DF6D131
:40580000281C59460A4353425341002806D1002BEDD0634658420123184308E00020002B05D14A46504250414042012318433CBC90469946A246AB46F0BD3E1C0643C9D03A
:4058400002204042F3E75E461643C6D0F8E7AC4207DC0BDA614648424841404201231843E5E76646704201231843E0E75F450AD80ED000205F45DAD2654668426841404203
:4058800001231843D3E76246504201231843CEE7D045F8D80020D045EED3C8E7FF070000F0B556464D4644465F46F0B40D1C83B0041C0190E80F814618030F03000B3F0BBD
:4058C00084463548009749005E00DF0F490D9246760DB846814234D02F48864236D0002918D0002E1FD1341C67463A4353425341002C1FD00020002B05D1424650425041C1
:4059000040420123184303B03CBC90469946A246AB46F0BD0098044360426041041C002EE2D00028E9D1C14515D04F46784201231843E8E7002BF6D04B4658420123184359
:40594000E1E7009F02202743DDD1C5E7674602201743D8D1C3E7B14204DD4A46504201231843D0E7B14207DB00986045E4D80AD0009F00206745C6D24F46784278414042FD
:4059800001231843BFE7019A5245D5D8019A00205245F1D3B7E7C046FF070000F0B5564644465F464D46F0B41F1C0B031B0B9A464B0087B0041C80465B0DC80F161C0293BF
:4059C0008146002B68D0694B0299994232D08022534652031A43D200630F1A439246644AE000891880460291002400253B031B0B9B467800FB0F321C400D039300D175E0FC
:405A00005A4B984269D08022594652030A43730FD2001A43564B9346C018F200002303994E4671401C430F2C00D9A9E0514EA4003459A74653461C4300D087E00025AA46D5
:405A4000A84608240225D1E74946022D6CD0032D00D117E2012D00D058E10D40EDB20024A9460023A0460020002125030A0D1C052D0B1205404B2A43134023435B004C466C
:405A80005B08E207191C4046114307B03CBC90469946A246AB46F0BD5346234350D05346002B00D184E1504600F0E2FD031E272B00DD76E128210D1A211C083B5246E940CB
:405AC0009A400D1C1543221C9A40AA4690462B4B00241B1A0293002588E75B461E430323002E9CD1B3460022022398E75B46334321D05846002800D14EE100F0B9FD272830
:405B000000DD42E128210F1A021C311C083A5B46F94093400F1C1F43331C9340BB461A1C164B181A00237AE701230B4000249946A0460E4B97E70027BB46002201236EE7AA
:405B4000002104248A46884601254FE70C2403254CE700258024A9462403A846034B82E7DA46904603991D1C6FE7C046FF07000001FCFFFF9C6D0000FFFF0F800DFCFFFF0E
:405B8000029F160C381804904046070C0004000C1204120C031C5343041C3D1C7443554398463B1C73436419A44644460293230C63449D4204D9029D802464022D1902955B
:405BC0001D0C039545462C041B04240C1C1905945C46230C051C58432404240C8446381C604365435F438146CC44280C6044BB46814502D980277F02BB442D04070C2D0C27
:405C0000000440195546BC462F04E3448446280C3D0C2F1C5743B8462F1C77434243B94647463F0C9144BA46D14446434A4502D980225202B6184F463A0CB6183A04474670
:405C40003F043F0CB8462F1C67435D434443584365190190380C2D184244B846AC4204D9019880235B02C0180190039C029F201C6044C0196045A44147466442A4462B0429
:405C80003C049946240C4C44A046D8448018C246E24490429241574652429146F219E245BF417F424B46BC46D845BF41D4187F4263461F432D0C7F19B24292414C45AD411E
:405CC00052426D421543019E7D19AB19E20D5B02059F134342023A439A46531E9A41C30D101C18436402204380465046C0010DD5454601225646049C6B082A401A43F307A0
:405D000001341A43760804949046B246049E634FF319002B61DD404640070BD00F2244462240042A06D042460432424580414042824490465546ED0107D5594B5646049FEF
:405D400080201E40C000B2463B18564A934200DDEAE644465546E2086807104301226C025B050A408046240B5B0D91467BE6DA4690461D1C69E680242403574627421CD11B
:405D80003C432403240B484B6DE6031C283B311C99408B460022C3E6301C00F069FC2030ADE6283B211C994000228A4690468EE6201C00F05DFC203078E65846204207D1A0
:405DC000044303992403240B89469046364B4AE63C432403240B344B45E6344B049E9B1B382B06DD01230B4000249946A046002339E61F2B25DC049C2D4D464660195246DC
:405E000044468640DC4082405746301C2243DF40441EA04102433B1C540709D00F201040042805D0101D9042924152429B18021C1D021AD501230B4000249946A046012373
:405E400011E61C48049C5546001BC540281C202B16D0194E5746A21997403A1C43461A43531E9A4102430023D6E758075B02D2081C0B01230B401043994680460023F2E596
:405E80000022EBE78024240350460123044319402403240B8946044BE5E5C046FF030000FFFFFFFEFE070000FF07000002FCFFFF1E040000E2FBFFFF3E040000F8B55F46F0
:405EC000564644464D46F0B40C034D00CF0F610A440F2143C4001803DE0F8046B44646465800760A530F3343D600D14A6D0DBA46400DB346904200D1F5E062460126724077
:405F00009446674500D1ABE02F1A002F00DC11E100283ED15846184300D0F1E0600700D197E00F232340042B00D122E1221DA242A4416442802309191B04012750460B4086
:405F40000740141C002B00D179E0B94B01359D4200D10BE1B74BE40819404807490204430B0B002000211B031A0B0B0D6D051B0513436A08B04DFF071D4015436D006D08B1
:405F8000291C3943201C3CBC90469946A246AB46F8BDA7488542C1D0802000040343382F00DDFDE01F2F00DD31E12020C01B1A1C5E468240FE40324394465A468240101C48
:405FC000421E9041FB40624602431F1CA21A9442A4416442C91B091B141C0A029ED549024F0A002F00D1D6E0381C00F041FB021C083A1F2A00DDC3E02821231C091A9740B4
:40600000CB401F439440954200DDC0E0551B691C1F2900DDEAE01F22551B3B1C221CAB40CA40AC40651EAC411343CF401C43391C002573E780217E4D0027C90300247C4B6E
:406040004807E4080443C9089D4250D009030B0B87E780231B04012752460B40174071E72A1A9446002A00DCA1E0002854D07048854200D152E78020000403436046382858
:4060800000DD0EE11F2800DD57E162462020801A1E1C8640B1465E46D6404A4632435E4686409046301C421E9041424602436046C3401219A242A441644259180919141CF0
:4060C000080200D42AE75A4B01359D4200D131E1584B60081940012323401C1C0443CB071C4349081AE71E4300D00AE705E7231C0B433BD080231B030B431B031B0B30E717
:40610000013F002F6DD15E46A21B9442A4416442C91A091B141C60E75846184300D1FDE601267642B4446046002800D0D0E05E463219BFE7002F00D080E0681C4005400D96
:40614000012800DCE8E05A46A21A9442BF41C81A7F42C71B3E0200D498E05846041BA3459241591A52428F1AE2463AE700230024F7E680231B04012756460B403740E1E66B
:40618000271C283887400024954200DC3EE72949AD1A3940C2E6201C00F06AFA203026E75A461A43531E9A41D2B200270EE7002A00D0DEE0681C4605760D012E00DC90E0C4
:4061C0001B4DA84200D1F5E05E463219A242A441644259180919CC07520814434908051C9CE61348854200D0D9E697E62B1C1F3B3E1CDE40331C20296FD03F22551BAF4060
:406200003C43601E84411C430021002586E6381C20381E1CC640301C202F60D04022D71BBB405A461A43531E9A4102430027CDE6FF070000FFFF7FFFFFFF0F80002D37D0DA
:40624000B64DA84200D18FE080252D047F422943382F00DDA8E01F2F00DD24E12025ED1B0E1CAE40B046261CFE404246AC401643651EAC413443F9405A46141BA3459241A0
:406280005B1A5242991A051CE246A6E6131C3B43141C002B00D0A4E60027002100250024CDE65A461A43531E9A41D2B2002300E70D1C254358D0FF43002F51D15A46141BB5
:4062C000A3459241591A5242891A051CE24684E69248854200D0D1E620E6002790E700239FE7081C2043002D00D0C2E0002800D1EFE05846184300D110E658460219A242C6
:40630000A441644259180919141C0A0200D405E6834B0125194001E6081C2043002D38D100286FD15946194303D0191C5C46E246F4E500270021002481E6604620381A1C3E
:40634000C2406646101C202E00D1AAE04022921B93405A461A43531E9A4102430023A8E66E4DA84200D073E7191C5C46051CE246D4E5002D22D10D1C254376D0D543002D95
:4063800070D15C445C459241591852428918051C96E600284CD15946194300D14AE6191C5C46E2465D4DB9E50C43611E8C41E4B2002161E7051C0021002440E6574DA84209
:4063C00053D05542802216043143382D7BDC1F2D00DD8CE02022561B0A1CB446B240261CEE403243904662469440661EB44142461443E9405C445C459241CB1852429918A9
:40640000051C5DE65846184300D187E55E46A71BBC429241C81A5242801A060260D55846041BA3459241591A5242891AE24675E55846184333D04807E40804438020C908AB
:406440000003014208D0DD08054205D15946CA085C071443291CE246630FC9001943E4002E4D5BE52D4A9042AFD1191C5C46051C54E5002830D05846184310D0802548073F
:40648000E408C9082D0304432942E5D0D8082842E2D15D46EA085C071443011CDCE71F4D3CE5002355E73D1C203D0E1CEE40351C202F2ED04026F71BB9400C43611E8C41B8
:4064C0002C430021D8E60C43611E8C41E4B2002190E7191C5C4621E5191C5C460F4D1DE5031C3B4300D124E7011C3C1C16E52026764276190A1CF2409046202D0BD0402641
:40650000751BA9400C43611E8C4145462C43002170E70021D1E70021F4E7C046FF070000FFFF7FFF70B50B1C124C09030E0B5900021C490DDD0F0020A14211DD0E488142E6
:406540000FDC8020400306430C48401A1F280BDD0B4A521AD640321C5042002D00D1101C70BD084BE818FBE7074BC240C9188E403243F1E7FE0300001D040000330400003B
:4065800013040000FFFFFF7FEDFBFFFFF8B5041E31D0C70F00D04442201C00F069F8184D2D1A0A2819DD0B38844024036D05240B6D0D3A1C0026002000210B0D2403240B91
:4065C0001B0523430F4C2D051C402C4364006408D307211C301C1943F8BD061C1536231CB3401E1C0B23181AC44024036D05240B6D0D3A1CDFE70022002500240026DAE78C
:406600001E040000FFFF0F8010B5041E28D000F02FF8154A121A0A2815DD0B38844024035205240B520D0023002000212403181C0B0D240B1B0523430C4C12051C40144345
:406640006400610810BD031C1533211C99400B1C0B21081AC44024035205240B520DE3E7002200240023DFE71E040000FFFF0F801C2101231B04984201D3000C10391B0A2E
:40668000984201D3000A08391B09984201D30009043902A2105C40187047C0460403020201010101000000000000000070B50E4B0E4D0024ED1AAD101E1CAC4204D0A30035
:4066C000F35898470134F8E700F088FB084B094D0024ED1AAD101E1CAC4204D0A300F35898470134F8E770BDE86D0000E86D0000E86D0000F06D000010B50023934203D062
:40670000CC5CC4540133F9E710BD031C8218934202D019700133FAE77047031C002010B582420FD01C780878A04201D1012A03D118780B78C01A05E0013A0028F8D00133E4
:406740000131EFE710BD00000000000030000000310000007B226E223A2254222C2274223A2264222C2276223A0000002C7B226E223A225756222C2274223A2264222C2266
:4067800076223A002C7B226E223A224556222C2274223A2273222C2276223A22505553482066726F6D204C30227D0000496E666F000000000A0000000C0000000E0000007F
:4067C0000F000000120000001400000013000000100000000E0000000D0000000B000000090000000000000001000000030000000500000004000000020000000100000002
:4068000006090000880900001809000026090000340900004209000050090000880900006C0900007A090000060A0000560A0000100A00001A0A0000240A00002E0A0000EA
:40684000380A0000560A0000420A00004C0A0000C80A0000D40A0000F40A0000020B0000100B00001E0B00002C0B00003A0B00005A0B0000680B0000D20C0000D20C0000C5
:406880007E0C00008C0C00009A0C0000A80C0000B60C0000980D0000980D0000440D0000520D0000600D00006E0D00007C0D00002E0E00002E0E0000DA0D0000E80D0000DB
:4068C000F60D0000040E0000120E0000F20E0000F20E00009E0E0000AC0E0000BA0E0000C80E0000D60E0000680F0000680F0000140F0000220F0000300F00003E0F0000AD
:406900004C0F0000FE0F0000FE0F0000AA0F0000B80F0000C60F0000D40F0000E20F0000FE100000FE100000AA100000B8100000C6100000D4100000E210000075706461C5
:4069400074654F7056616C730A0D0000636865636B4F704D6F646520203A20000D0A0000636865636B566F6C756D650A0D00000076616C76654F6E0D0A00000076616C76A7
:40698000654F66660D0A000000300F40000400400F40000401000F400D300F4008310F4001330F400A400F4002410F4002600F40817F920498019A029E01B201B404B602DA
:4069C000D602D804DB04DC03DD10DF010E050F801E051F08778083088780C2D0AB400D206F01730283028701C280DA80DC20E240E680A920E820100A110100000304050618
:406A00000708090A0B0C0E0F101112131415161718191B1C1D1E1F2021222325262728292A2B2E2F3031323334350000524551005245515F41434B0041434B004E41434B8E
:406A40000000000050555348000000004552520064250000C424000004250000E42400002425000064250000642500006425000044250000536C656570506572696F6400A2
:406A800053687574646F776E54696D650000000074657374000000005374617274000000546573740000000049646C650000000053687574646F776E000000007B2264653D
:406AC0007374696E6174696F6E223A002C22736F75726365223A00002C226F72646572223A2200002C22666C616773223A22000064657374696E6174696F6E0061746F6D12
:406B000054797065000000004C00000061746F6D4964000030000000736F757263650000666C6167730000006F726465720000007061796C6F6164006E0000002C227061A8
:406B4000796C6F6164223A7B226E223A22536C656570506572696F64222C2274223A2269222C2276223A00002C227061796C6F6164223A7B226E223A2253687574646F77A3
:406B80006E54696D65222C2274223A2269222C2276223A002C227061796C6F6164223A7B226E223A2274657374222C2274223A2273222C2276223A002C227061796C6F6103
:406BC00064223A6E756C6C00740000007600000069000000730000002C227061796C6F6164223A7B226F61223A5B00005D7D00005365740047657400496E666F00000000EA
:406C000053746174757300004D6F6465000000007B2261746F6D54797065223A224C222C2261746F6D4964223A307D0038400000B43F000050400000E43F00001A40000042
:406C4000D83F00001A40000002400000424C0000384C0000384C0000384C0000384C0000384C0000384C0000384C0000384C0000384C0000384C0000384C0000384C0000A3
:406C8000424C0000384C0000384C0000384C0000384C0000384C0000384C0000384C0000384C0000384C0000384C0000384C0000384C0000384C0000384C0000384C00008A
:406CC000384C0000384C0000384C0000384C0000384C0000384C0000384C0000384C0000384C0000384C0000384C0000384C0000384C0000384C0000384C0000384C000054
:406D0000384C0000384C0000384C0000384C0000384C0000384C0000384C0000384C0000384C0000384C0000384C0000384C0000384C0000424C0000384C0000384C000009
:406D4000384C0000384C0000384C0000424C0000384C0000384C0000384C0000424C0000384C0000384C0000384C0000384C0000384C0000384C0000384C0000424C0000B5
:406D8000384C0000384C0000384C0000424C0000384C0000424C0000904B0000805B00006E5D00006E5D0000605B00004A5A00004A5A0000525B0000605B00004A5A00004C
:406DC000525B00004A5A0000605B0000485A0000485A0000485A0000765D0000F8B5C046F8BC08BC9E467047B102000081170000F8B5C046F8BC08BC9E467047890200006C
:406E0000106E0000C8000020E00100008007000000000000000000000000000000000000000000000100000000000000000000000000000002000000000000000000000081
:406E40000000000003000000000000000000000000000000040000000000000000000000000000000500000000000000000000000000000006000000000000000000000000
:406E80000000000007000000000000000000000000000000080000000100000005000000050000000900000001000000060000000B0000000A00000001000000070000008B
:406EC000120000000B00000001000000080000001A0000000C0000000100000009000000230000000D000000010000000A0000002D0000000E0000000100000009000000BC
:406F0000360000000F00000001000000080000003E000000100000000100000007000000450000001100000001000000060000004B000000120000000000000000000000F3
:406F40004B0000001300000000000000000000004B0000001400000000000000000000004B0000001500000000000000000000004B00000016000000000000000000000093
:406F80004B0000001700000000000000000000004B00000000366E01C05D0000180000000000E02EF40300202C0100007B2261746F6D54797065223A2258222C2261746F7E
:406FC0006D4964223A307D00710200207D020020746A0000806A0000906A0000986A0000A06A0000A86A0000B06A0000010100000000000000000000000000000000000040
:407000000000000000000000000000000000000000000000000000000000000000000000000000000000000000000000000000000000000000000000000000000000000050
:407040000000000000000000000000000000000000000000000000000000000000000000000000000000000000000000000000000000000000000000000000000000000010
:4070800000000000000000000000000000000000000000000000000000000000000000000000000000000000000000000000000000000000000000000000000000000000D0
:4070C0000000000000000000000000000000000000000000000000000000000000000000000000000000000000000000000000000000000000000000000000000000000090
:0200000490303A
:02000000862850
:0200000490402A
:200000000000000000000000000000000000000000000000000000000000000000000000E0
:0200000490501A
:0C000000000204C81193110104EC97BB2E
:0200000490600A
:0100000001FE
:00000001FF